:020000040800F2
:10000000580E002089010008E31E0008E71D0008C3
:10001000E11E0008AF040008A92400080000000049
:10002000000000000000000000000000B5210008F2
:10003000EB04000800000000E51E0008B7210008DE
:10004000A3010008A3010008A3010008A301000800
:10005000A3010008A3010008A3010008A3010008F0
:10006000A3010008A3010008A3010008A3010008E0
:10007000A3010008A3010008A3010008A3010008D0
:10008000A3010008A3010008A3010008A3010008C0
:10009000A3010008A3010008A3010008A3010008B0
:1000A000A3010008A3010008A3010008A3010008A0
:1000B000A3010008A3010008A3010008A301000890
:1000C000A3010008A3010008A3010008A301000880
:1000D000A30100089D240008A3010008A301000853
:1000E000A10A0008A3010008A301000800F002F81B
:1000F00000F03AF80AA090E8000C82448344AAF188
:100100000107DA4501D100F02FF8AFF2090EBAE885
:100110000F0013F0010F18BFFB1A43F0010318473B
:10012000242C0000442C0000103A24BF78C878C169
:10013000FAD8520724BF30C830C144BF04680C60ED
:10014000704700000023002400250026103A28BF35
:1001500078C1FBD8520728BF30C148BF0B60704739
:100160001FB51FBD10B510BD00F068F91146FFF7AF
:10017000F7FF02F0FDFC00F086F903B4FFF7F2FF91
:1001800003BC00F08DF9000009488047094800478A
:10019000FEE7FEE7FEE7FEE7FEE7FEE7FEE7FEE737
:1001A000FEE7FEE704480549054A064B7047000094
:1001B00019220008ED00000858080020580E002001
:1001C000580A0020580A002053EA020C00F0698007
:1001D0002DE9F04B4FF00006002B1FBFB3FA83F55B
:1001E00003FA05F424FA05F65E4012BF1643B2FA8C
:1001F00082F502FA05F4C5F120051EBF22FA05FCBE
:1002000044EA0C04203556EA044C4FEA144418BF63
:10021000641C4FF000084FF00009904271EB030C92
:1002200039D3002919BFB1FA81F701FA07F6B0FAFC
:1002300080F700FA07F6C7F120071EBF20FA07FC77
:1002400046EA0C062037B6FBF4FCA7EB0507103F87
:1002500007F01F0BCBF120060CFA0BFB2CFA06F66D
:1002600044BFB3460026202FA4BF5E464FF0000BCC
:100270005BEA060C08BF4FF0010B19EB0B09ABFB57
:10028000027C48EB0608C01B06FB02CC0BFB03CC30
:1002900071EB0C01C1E70B46024641464846BDE8FA
:1002A000F08B13B54FF000004FF00001AFF300806A
:1002B000BDE81C407047032A40F2308010F0030C68
:1002C00000F0158011F8013BBCF1020F624498BFA9
:1002D00011F801CB00F8013B38BF11F8013BA2F146
:1002E000040298BF00F801CB38BF00F8013B11F0C1
:1002F000030300F02580083AC0F0088051F8043B61
:10030000083A51F804CBA0E80810F5E7121D5CBFCD
:1003100051F8043B40F8043BAFF30080D20724BF00
:1003200011F8013B11F801CB48BF11F8012B24BF94
:1003300000F8013B00F801CB48BF00F8012B7047E3
:1003400010B5203AC0F00B80B1E81850203AA0E870
:100350001850B1E81850A0E81850BFF4F5AF5FEAA4
:10036000027C24BFB1E81850A0E8185044BF18C957
:1003700018C0BDE810405FEA827C24BF51F8043BFE
:1003800040F8043B08BF7047D20728BF31F8023B52
:1003900048BF11F8012B28BF20F8023B48BF00F8E6
:1003A000012B70474FF000020429C0F0128010F0BA
:1003B000030C00F01B80CCF1040CBCF1020F18BF41
:1003C00000F8012BA8BF20F8022BA1EB0C0100F0D4
:1003D0000DB85FEAC17C24BF00F8012B00F8012BA7
:1003E00048BF00F8012B70474FF0000200B51346DC
:1003F00094469646203922BFA0E80C50A0E80C5045
:10040000B1F12001BFF4F7AF090728BFA0E80C50F5
:1004100048BF0CC05DF804EB890028BF40F8042BEE
:1004200008BF704748BF20F8022B11F0804F18BF5B
:1004300000F8012B7047704770477047754600F011
:100440002BF8AE4605006946534620F00700854666
:1004500018B020B5FFF7A6FEBDE820404FF000061B
:100460004FF000074FF000084FF0000B21F007019C
:10047000AC46ACE8C009ACE8C009ACE8C009ACE8DF
:10048000C0098D46704710B50446AFF30080204682
:10049000BDE81040FFF771BE00487047F807002024
:1004A00001491820ABBEFEE7260002007047FEE7B8
:1004B000F0B505464FF6FF742046002341F22106B1
:1004C00010E0EA5C80EA02200022070403D586EAF5
:1004D000400080B201E004EA4000521CD2B2082A77
:1004E000F3D35B1C8B42ECD3F0BD70472DE9FF5F6B
:1004F00004001BD087484068C0B1207A401F0828FC
:1005000014D2606802F0BCF80746607A4FF0020827
:100510004FF0010A4FF0040B4FF00009052809D0F5
:10052000062809D0072809D0082809D0012004B0DE
:10053000BDE8F09F564604E0464602E0032600E090
:100540005E46142221467448FFF7FAFE724DA889D0
:1005500008B90820A8818DF8009001226946802002
:1005600002F00EFA0028E2D154468DF800A00122D4
:1005700069468A2002F004FA0028D8D1286802F0DF
:100580006BF90028D3D18DF800908DF801900222EC
:1005900069468F2002F0F4F90028C8D1287A8DF836
:1005A00000008DF801708DF802604E468DF80390C2
:1005B000042269468B2002F0E3F90028B7D13846BF
:1005C00002F034F80028B2D1FF2002F077F90028B9
:1005D000ADD1A87B122803D0342804D02046A6E74A
:1005E00041F2244001E043F24440010A8DF8081032
:1005F0008DF80900022202A94FF4E86002F0F2F936
:10060000002894D18DF800B007208DF801008DF8F6
:1006100002605F468DF8034004226946952002F08F
:10062000AFF9002883D140F6D809012202A9484633
:1006300002F0C0F8A0B99DF80800012240F01E00A9
:100640008DF8080002A9484602F0CCF940B93820DC
:100650008DF80800012202A940F6E70002F0C2F975
:100660000028BCD195F90B001D2801DB12201AE0EF
:100670001A2801DB0E2016E0172801DB0A2012E001
:10068000142801DB07200EE0112801DB04200AE01A
:100690000E2801DB012006E00B2802DB6FF00100D1
:1006A00001E06FF004008DF800008DF80170022267
:1006B00069468E2002F064F9002890D196208DF8CA
:1006C0000800012202A940F6AC0002F08BF90028D4
:1006D00085D102968DF8088063218DF809108DF878
:1006E0000A808DF80B100822039602A9104602F02A
:1006F00047F9002885D14FF6FF7001F0B4FF0028BC
:1007000090D1044844708670C67002F093F80020BF
:100710000DE7000018000020DC01002038B500289B
:100720005AD02E49002448604C708C70CC700C70EC
:1007300014212B48FFF758FE02F07CF801F0B0FFBF
:10074000284D01220221284600F037FB022000F04C
:100750001BFA00220221284600F02FFB142000F093
:1007600013FA01220221284600F027FB0A2000F09C
:100770000BFA4FF47A7002F0E7F800282BD18DF8CD
:10078000004001226946802002F0FAF8002822D1B8
:1007900003208DF800008DF8014001248DF80240FF
:1007A00040208DF8030004226946972002F0E8F803
:1007B000002810D18DF8004001226946962002F0F1
:1007C000DFF8002807D17F208DF80000012269465C
:1007D000892002F0D5F838BD012038BD180000206E
:1007E000DC010020000C014002488078002800D085
:1007F000012070471800002001490120087070474F
:10080000180000202DE9FE43040013D04FF484713A
:10081000FFF7C8FD3A4D00262670287800280AD038
:100820002E70022202A91220029601F083FF0527F2
:1008300018B128E00020BDE8FE83BDF8080040BAEA
:100840008046A4F8060101F00EFF40465FEAC87139
:1008500007D0AE7001F0EEFF012049E000F0E8F8AB
:1008600012E082074FF004013AD518F0600F44D12E
:1008700003E0E8780028F1D106E0022201A9132064
:1008800001F058FF10B127700120D4E79DF8042033
:1008900084F8002132B19DF80500611C01F010FFC1
:1008A0000028F0D103226946142001F043FF0028FC
:1008B000E9D19DF8000000EB80004042A4F802015D
:1008C0009DF8010040B210EB800001D4401C00E014
:1008D000401E00EBD0704010A4F80401022007E095
:1008E000820507D5AA782AB1AE7001F0A3FF0320D4
:1008F0002070BEE718F060009DD02170B9E70000BD
:100900001800002010B586B014220B496846FFF786
:1009100017FD0A4844784068FFF700FF002807D118
:1009200044B16846FFF7E2FD002801D100F080F8ED
:1009300006B010BD0020FBE7DC01002018000020FD
:100940002DE9FC47374D0E46697831B128B126B103
:10095000A97821B10220BDE8FC870120FBE701272F
:1009600081464FF47A7AEF704FF00008504601F05C
:10097000EBFF04001CD10E208DF804008DF80580DB
:1009800001F096FE6423022201A9686800F060FE6F
:10099000040006D1642332464946686800F058FED8
:1009A000044601F07DFE1CB9504601F0CDFF04461F
:1009B0002000D0D1304601F081FF0028CBD11A4869
:1009C000406801F05DFE01F031FE0028C3D14FF612
:1009D000FF7001F048FE0028BDD1144C00224FF4F6
:1009E0008051204600F0E9F901225103204600F031
:1009F000E4F9022000F0C8F804208DF80000E2209D
:100A00008DF8010000208DF8020003226946832042
:100A100001F0B6FF040003D001F00CFF20469AE776
:100A2000AF70FBE718000020DC010020000C014043
:100A300038B518A0184C00680090607818B1A078FC
:100A400018B1022038BD012038BDFF2001F036FF6B
:100A50000028F9D14FF6FF7001F005FE0028F3D110
:100A60000E4D00224FF40051284600F0A6F9012255
:100A70001103284600F0A1F9012000F085F80322B7
:100A80006946822001F07CFF0028DDD10121E17060
:100A900038BD0000FFFFFF0018000020000C0140DF
:100AA0004FF4006000F088B810B590F821100022D3
:100AB000022905D00421816380F82020012010BD87
:100AC00001680B6823F00E030B6001680B6823F0CC
:100AD00001030B6090F84030C46B012101FA03F36D
:100AE000636080F8211080F82020104610BD0000BF
:100AF00010B590F821100024022903D0042181634D
:100B000001243DE001680A6822F00E020A600168D3
:100B10000A6822F001020A601A4A0168914201D172
:100B2000012121E0174A1432914201D110211BE02A
:100B3000144A2832914201D1891515E0114A3C32FC
:100B4000914201D189140FE00E4A5032914202D1F4
:100B50004FF4803108E00B4A6432914202D14FF4E5
:100B6000801101E04FF08071064A083A516001217E
:100B700080F82110002180F82010416B01B18847D6
:100B8000204610BD0800024070B5044600F01AF976
:100B90000546601C02D004480078044400F012F9B5
:100BA000401BA042FAD370BD08000020B0F5006FD2
:100BB00001D1FFF721BE7047044910B50A6802420F
:100BC00002D00860FFF7F2FF10BD000014040140DE
:100BD0002DE9F84FDFF8B8910024A9F1040B234662
:100BE0000F2709F1040AABF1040EC9E00125A54065
:100BF0002A40AA427DD1674ED1F804C0ACEB06086A
:100C0000B44532D014DCBCF1030F3AD009DCBCF19E
:100C1000000F2AD0BCF1010F1CD0BCF1020F31D162
:100C20001DE0BCF1110F17D0BCF1120F2AD119E051
:100C3000B8F5881F19D006DCB8F5803F15D0B8F597
:100C4000801F1FD111E0B8F5001F0ED0B8F5041FAA
:100C500018D10AE0CB6815E0CB681B1D12E0CB6809
:100C600008330FE0CB680C330CE08B682BB1012B01
:100C70004FF0080303D0456104E0042302E005615E
:100C800000E00023FF2A01D8064601E000F1040637
:100C90004FEA840501D9A5F12005D6F8008007FAAE
:100CA00005FC28EA0C0803FA05F548EA0508C6F829
:100CB00000804D68ED0062D5374DAE6946F0010603
:100CC000AE61AD6924F0030605F001050095334DD2
:100CD00006EB050CDCF80850A607360F07FA06F8F5
:100CE00025EA0805DFF8B880404503D14FF0000839
:100CF00017E044E0DFF8AC80404502D14FF0010836
:100D00000FE0DFF8A480404502D14FF0020808E070
:100D1000DFF89880404502D14FF0030801E04FF022
:100D2000040808FA06F848EA0508CCF808804D6877
:100D3000D9F80060ED024D4601D5164300E0964318
:100D40002E604D68DAF80060AD02554601D51643B5
:100D500000E096432E604D68DBF80060AD035D4611
:100D600001D5164300E096432E604D68DEF8006022
:100D7000ED03754601D5164300E096432E60641CD2
:100D80000D682A46E5407FF431AFBDE8F88F0000DA
:100D90000804014000001110001002400000014052
:100DA00000080140000C0140001001400014014007
:100DB0008068084000D0012070470AB10161704787
:100DC0000904FBE701488068704700000800002024
:100DD0000248816802781144816070470800002051
:100DE000074810B5016841F010010160032000F0D0
:100DF00075F80F2000F006F800F024F8002010BD70
:100E00000020024070B50D4D04464FF47A712878E9
:100E1000B1FBF0F00A490968B1FBF0F000F0C3FD46
:100E200048B9102C07D200222146501E00F036F897
:100E300000206C6070BD012070BD00000800002023
:100E4000140000200C4808B5816941F0010181615E
:100E5000816901F001010091C16941F08051C161D6
:100E6000C06900F0805000900448416821F0E061C2
:100E700041F00071416008BD0010024000000140D7
:100E8000002809DB00F01F02012191404009800089
:100E900000F1E020C0F8001170470000F0B40E4BE4
:100EA0001B680C46C3F30223C3F10705042D00D9C8
:100EB0000425191D072901D2002300E0DB1E0126AD
:100EC00006FA05F1491E214099409E40761E1640C3
:100ED0003143F0BC01F0E9BA0CED00E0064900F046
:100EE000070208684FF6FF03184040EA0220034A51
:100EF00010430860704700000CED00E00000FA05A8
:100F00002DE9F0470F46050061D0434E306800F0F0
:100F10000700B84209D2306820F00700384330603B
:100F2000306800F00700B84251D128683B4C810777
:100F300012D5400703D5606840F4E060606028780F
:100F4000000703D5606840F4605060606068A9687D
:100F500020F0F000084360602878C00728D0686857
:100F6000012810D02168022810D0890700292EDA24
:100F7000616821F0030101436160FFF723FF8046B0
:100F800041F288390DE021688903EFE78901EDE737
:100F9000FFF718FFA0EB0801494502D90320BDE87F
:100FA000F0876068696800F00C00B0EB810FEFD14A
:100FB000306800F00700B8420BD9306820F0070015
:100FC00038433060306800F00700B84201D001209B
:100FD000E5E72878400705D56068E96820F4E06017
:100FE000084360602878000706D56068296920F406
:100FF000605040EAC100606000F038F86168084A5B
:10100000C1F30311515CC8400649086006480068F6
:10101000FFF7F8FE0020C2E7002002400010024067
:10102000102D0008140000200C0000200448054981
:1010300000684968044AC1F30221515CC840704706
:101040001400002000100240202D0008044805492B
:1010500000684968044AC1F3C221515CC840704726
:101060001400002000100240202D00080E4A516894
:101070000E4801F00C03042B11D0082B0FD10C48A3
:10108000C1F38343C903C05C0AD55168084AC1F360
:101090004041921E515C054A5043B0FBF1F070474D
:1010A00004494843704700000010024000127A00D3
:1010B000002D000800093D002DE9F84F040070D014
:1010C0002078C04DC00749D06868C0F3810001286E
:1010D00007D06868C0F38100022809D16868C0039E
:1010E00006D52868800339D560680028E7D035E048
:1010F0006068B0F5803F0BD010B1B0F5A02F11D0D3
:10110000286820F480302860286820F4802002E0DD
:10111000286840F480302860606890B1FFF752FE84
:1011200006460AE0286840F480202860F0E700BF07
:10113000FFF748FE801B642873D828688003F7D522
:101140000CE0FFF73FFE064605E000BFFFF73AFE62
:10115000801B6428F0D828688003F7D420789A4E42
:1011600080074FF001094FF0000839D5686810F08A
:101170000C0F07D06868C0F38100022809D16868A5
:10118000C00306D42868800714D52069012808D137
:1011900010E02069B0B1C6F80090FFF713FE0746D3
:1011A00005E00AE1FFF70EFEC01B0228C4D828683C
:1011B0008007F7D52868616920F0F80040EAC1008F
:1011C00028600DE0C6F80080FFF7FCFD074604E04C
:1011D000FFF7F8FDC01B022823D828688007F7D442
:1011E000207800072CD57948A169D9B1C0F80090C2
:1011F000FFF7E8FD074604E0FFF7E4FDC01B022807
:101200000FD8686A8007F7D571484FF4FA51006823
:10121000B0FBF1F0009000BF0098411E0091FAD29F
:101220000EE080E0C0F80080FFF7CCFD074604E048
:10123000FFF7C8FDC01B022875D8686A8007F7D47D
:101240002078400760D5E8690027C00008D4E86925
:1012500040F08050E861E869012700F0805000907C
:101260005C480168C90513D40168834641F4807164
:101270000160FFF7A7FD824606E000BFFFF7A2FD71
:10128000A0EB0A0064284ED8DBF80000C005F5D5B5
:10129000E06801280AD008B1052813D0286A20F098
:1012A00001002862286A20F0040002E0286A40F069
:1012B00001002862E06841F2883B98B1FFF782FDA7
:1012C00082460BE0286A40F004002862EEE700BF87
:1012D000FFF778FDA0EB0A0159455AD8286A800724
:1012E000F6D50CE0FFF76EFD824605E0FFF76AFDDC
:1012F000A0EB0A0159454CD8286A8007F6D41FB1E3
:10130000E86920F08050E861E06988B36968C1F35A
:101310008101022944D00228C6F8608004D0FFF77A
:1013200051FD044638E034E0FFF74CFD074604E089
:10133000FFF748FDC01B02282BD828688001F7D48E
:10134000206AB0F5803F05D16868A16820F40030BC
:1013500008436860D4E908010843696821F47411FE
:1013600008436860C6F86090FFF72CFD044606E06D
:1013700025E000BFFFF726FD001B022809D82868DA
:101380008001F7D51BE000BFFFF71CFD001B022802
:1013900002D90320BDE8F88F28688001F4D40EE05C
:1013A0000128F7D06868226A00F48031914204D1A4
:1013B000616A00F47010884201D00120EAE7002041
:1013C000E8E7000000100240000042428004424270
:1013D000140000200070004070B5040009D0606A5D
:1013E000002540B125616561A56294F8510040B1C6
:1013F0000CE0012070BD6068B0F5827FF4D0E5613B
:10140000F2E784F85050204600F040F8022084F8BB
:1014100051002068016821F040010160A088218905
:1014200000F4827001F404410843A18901F40061D1
:101430000843217C01F002010843217D01F00101F4
:101440000843218B01F400710843217F01F038012A
:10145000084394F8201001F080010843218D01F425
:101460000051084321680860A069042101EA104086
:10147000216848602068C16921F40061C161656527
:10148000012084F85100002070BD000030B585B007
:101490000024009401940294039400681449884243
:1014A00023D11448816941F480518161816901F43B
:1014B00080510491816941F00401816180690E4D80
:1014C00000F004000490A02000900220019003206E
:1014D000039069462846FFF77BFB4020CDE90004D6
:1014E000694628460294FFF773FB05B030BD000043
:1014F0000030014000100240000801402DE9F84F83
:10150000044690F851001D4616460F46012838D172
:1015100060684FF00408B0F5827F01D1A06830B355
:10152000FFF750FC8246002F75D0002E73D094F840
:101530005000012825D04FF0010984F8509084F81C
:1015400051804FF00008C4F85480A763A687E6874F
:10155000C4F83080A4F83480A4F83680C4F8408001
:10156000C4F84480A068B0F5004F0CD015E084F8B2
:101570005180009313460A46204600F01CF9BDE84E
:10158000F88F0220FBE72068016821F0400101602C
:101590002068016821F480410160206801684906E3
:1015A00003D4016841F040010160E068C0B134E05B
:1015B00020688168C90709D0007BA16B0870A06B07
:1015C000401CA063E08F401EE08709E0FFF7FAFBB4
:1015D000A0EB0A00A84202D3681C01D032E085B318
:1015E000E08F0028E4D11BE020688168C90709D09A
:1015F000C068A16B0880A06B801CA063E08F401EB8
:10160000E0870AE0FFF7DEFBA0EB0A00A84203D365
:10161000681C02D016E012E09DB1E08F0028E3D1F3
:1016200052462946204600F021FD08B12020606581
:1016300084F8519084F85080606D00289FD001207C
:101640009DE7FFE784F8519084F85080032096E7E7
:101650002DE9F84F984616468A460446FFF7B2FB36
:10166000814694F8510001281ED1BAF1000F73D0C1
:10167000002E71D094F85000012815D0012784F86D
:101680005070032084F8510000256565C4F830A02F
:10169000A686E686A563A587E58765642564A068B8
:1016A000B0F5004F03D00CE00220BDE8F88F2068B1
:1016B000016821F0400101602068016841F4804127
:1016C000016020680168490603D4016841F04001C7
:1016D0000160E068B0F5006F606803D048B3012E88
:1016E00027D047E008B1012E1FD1206B2168008868
:1016F000C86006E020688168890709D5216B0988E0
:10170000C160206B801C2063E08E401EE0860CE0F0
:10171000FFF758FBA0EB0901414503D3B8F1FF3FA8
:1017200003D035E0B8F1000F32D0E08E0028E1D1CF
:1017300023E0206B21680078087306E02068816848
:1017400089070AD5216B09780173206B401C20633F
:10175000E08E401EE0860DE02BE0FFF733FBA0EBB0
:101760000901414503D3B8F1FF3F03D010E0B8F1C0
:10177000000F0DD0E08E0028E0D14A4641462046B9
:1017800000F0A2FC08B120206065A06830B109E03B
:1017900084F8517084F85050032086E72068C168AF
:1017A0008068009084F8517004F8505F60680028E9
:1017B000F3D0012079E72DE9FF4F81B01D46934614
:1017C00004464FF001090E9EFFF7FCFA074694F815
:1017D00051006168012806D0B1F5827F3CD1A16833
:1017E000C9BB042838D10298002871D0BBF1000F82
:1017F000FBD0002DF9D094F8500001282CD04FF0E8
:10180000010A84F850A094F85100042802D0052061
:1018100084F851004FF00008C4F85480C4F838B080
:10182000E587A58702992163E586A586C4F84080EF
:10183000C4F8448020680168490603D4016841F077
:1018400040010160E068B0F5006F606808D0F0B357
:10185000012D49D081E0FFE7022005B0BDE8F08FFF
:1018600008B1012D39D1206B21680088C860206B38
:10187000801C2063E08E401EE0862EE02068816898
:1018800089070FD5E18E69B1B9F1010F0AD1216B3A
:101890000988C160206B801C2063E08E401EE086BA
:1018A0004FF0000920688168C9070CD0E18F51B161
:1018B000C068A16B0880A06B801CA063E08F401EF5
:1018C000E0874FF00109FFF77DFAC01B01E00BE054
:1018D00067E0B04201D3701C50D1E08E0028CDD11A
:1018E000E08F0028CAD13EE0206B216800780873A1
:1018F000206B401C2063E08E401EE0862DE02068B7
:10190000816889070FD5E18E69B1B9F1010F0AD15C
:10191000216B09780173206B401C2063E08E401E10
:10192000E0864FF0000920688168C9070CD0E18F7C
:1019300051B1C068A16B0870A06B401CA063E08F20
:10194000401EE0874FF00109FFF73CFAC01BB04290
:1019500002D3701C01D011E086B1E08E0028CED1F8
:10196000E08F0028CBD13A463146204600F0ACFB50
:1019700050B12020606584F8508012E084F851A0B6
:1019800084F85080032068E7A06818B92068C1680F
:101990008068009084F851A084F85080606D002821
:1019A000F1D0012059E710B5401EB0F1807F01D37E
:1019B000012010BD4FF0E02460610F21601700F09E
:1019C00074FD0020A06107202061002010BD704739
:1019D00000F00CBBF8B5016804460868CA684B699A
:1019E00010F00F0F4FF0000559D003F0010602F47C
:1019F0009077374365D0C10705D0D10503D5616C19
:101A000041F001016164410705D5D90703D0616C3C
:101A100041F002016164810705D5D90703D0616CEB
:101A200041F004016164010707D502F02001314350
:101A300003D0616C41F008016164616C00293AD007
:101A4000800604D5900602D5204600F015FC2068DB
:101A50004069616CC0F38010090700D460B3204670
:101A600000F0E3FB20684069400621D5206814306F
:101A700050E8001F21F0400140E80012002AF5D193
:101A8000E06BA8B16D494163E06BFFF731F80028C6
:101A900011D0E06B416B01B0BDE8F0400847830610
:101AA0000FD593060DD52046BDE8F84000F0E4BB05
:101AB0002046FFF78DFFF8BD2046FFF789FF6564DC
:101AC000F8BD266B2023012E7CD1C6067AD5D6061A
:101AD00078D508684868009048694FF002064006CB
:101AE00040D5E16B086840680004000CE8D0A28D86
:101AF0008242E5D9E085886920282DD020680C3005
:101B000050E8001F21F4807140E80012002AF5D14E
:101B10002068143050E8001F21F0010140E8001255
:101B2000002AF5D12068143050E8001F21F0400150
:101B300040E80012002AF5D184F84230256320687D
:101B40000C3050E8001F21F0100140E80012002A7C
:101B5000F5D1E06BFEF7A8FF6663A08DE18D401A1A
:101B600081B22AE0A08DE18D401A81B2E08D00287B
:101B7000A6D00029A4D022680C3252E8000F20F42D
:101B8000907042E80007002FF5D12068143050E82B
:101B9000002F22F0010240E80027002FF5D184F841
:101BA0004230256320680C3050E8002F22F01002EC
:101BB00040E80023002BF5D166632046FFF707FFBE
:101BC000F8BDFFE705062BD5150629D594F8410089
:101BD0002128F5D1A068B0F5805F01D12069B0B1AE
:101BE000206A411C2162216800784860E08C401E18
:101BF0000004000CE084E3D12068C16821F080017A
:101C0000C1602068C16841F04001C160D8E7206A26
:101C10000088C0F308004860206A801C2062E5E765
:101C20004006CDD55006CBD5CA68204622F04002EA
:101C3000CA6084F8413000F0D5F8C1E71B220008E3
:101C400070B5040004D094F84100002510B106E0FE
:101C5000012070BD84F84050204600F023F8242075
:101C600084F841002068C16821F40051C160204619
:101C700000F064FB2068016921F490410161206853
:101C8000416921F02A0141612068C16841F4005195
:101C9000C1606564202084F8410084F842006563D7
:101CA000002070BD30B585B00024009401940294EA
:101CB00003940068184988422CD11848816941F47E
:101CC00080418161816901F480410491816941F021
:101CD000040181618069124D00F0040004904FF40A
:101CE000007000900220019003200390694628466E
:101CF000FEF76EFF2815CDE90004694628460294D8
:101D0000FEF766FF002211462520FFF7C7F82520C1
:101D1000FFF7B6F805B030BD0038014000100240B2
:101D20000008014090F84230202B01D0022070477B
:101D300021B11AB10023036300F05CBB012070479E
:101D400000F06AB92DE9F843044690F8410098463E
:101D500016460D46202802D00220BDE8F88385B142
:101D60007EB100206064212084F84100FFF72AF84A
:101D7000A6848146E684A0682027B0F5805F02D063
:101D800003E00120E9E7206910B12E4600250EE0AE
:101D900000260CE08021204600F047FBA8B9C6B120
:101DA00016F8010B21684860E08C401EE084E08C4E
:101DB0004B464FF00002CDF800800028EAD14FF0EA
:101DC0004001204600F031FB40B184F8417003200F
:101DD000C3E735F8020BC0F30800E3E784F841706D
:101DE0000020BAE77047FEE730B585B000242848E8
:101DF0000094019402940394816941F0200181616F
:101E0000816901F020010491816941F0040181613F
:101E1000816901F004010491816941F00801816147
:101E200080691C4D00F0080004900122032128461F
:101E3000FEF7C3FF00224FF440512846FEF7BDFFD6
:101E400043F2030000900120CDE901040220039039
:101E500069462846FEF7BCFE2815CDE90004694610
:101E600028460294FEF7B4FEE81400900A48CDE933
:101E7000010469462846FEF7ABFE002211462820E1
:101E8000FFF70CF82820FEF7FBFF05B030BD00007F
:101E900000100240000C0140000011100F4810B566
:101EA0000D4901604FF48271416000218160C16081
:101EB0004FF400720161C0E905121822C0E9072140
:101EC000416281620A21C162FFF786FA002801D0CF
:101ED00072B6FEE710BD0000003001403400002063
:101EE000FEE7FEE77047000070B5C2B0040032D0D4
:101EF0001F4A2578002351789089062D2BD2DFE8E0
:101F000005F02A030B2C2A35002924D05370002316
:101F100001461A4682201CE0B4F80211684600F01F
:101F2000EAFE6D46B4F80411A81C00F0E4FE94F833
:101F30000011281D00F0DFFE94F800211AB1611C89
:101F4000A81DFEF7B8F994F800316A4600218120F7
:101F50009B1D00F02BFB42B070BD11B1537005A169
:101F600001E004A1002000F00FFBF4E704A1F9E771
:101F70002000002054585F54494D454F55540000EF
:101F8000524144494F5F4952515F4641494C00001C
:101F900010B570B1084C20610020A080E080607016
:101FA00000F09CFE0122A11C2069BDE81040FFF753
:101FB000B9BE012010BD00002000002070B5094D01
:101FC000094C4FF48066E188A088814209D0685CA2
:101FD000491C89B2B14200D30021E18000F034FEF7
:101FE000F1E770BDF0010020200000200146094803
:101FF00082B0006900280BD0814209D101680A68CB
:102000004968009103490122891C02B0FFF78ABE8A
:1020100002B0704720000020F0B41249024608695F
:1020200000281DD082421BD18D788B884FF48066AA
:102030005A1C92B2B24200D30022CC88A24206D1EE
:10204000CC88641CA4B2B44200D30024CC80064CDB
:10205000E5548A80F0BC03490122891CFFF762BE67
:10206000F0BC704720000020F0010020F8B50446C5
:1020700040684FF48273984217D1A0684FF480658E
:10208000B0F5004F01D0A8420FD12068066826F0B5
:10209000400606606068984207D1A068A84204D153
:1020A00000920B460022012103E000920B46002221
:1020B0008021204600F022F8002804D0606D40F016
:1020C000200060650320F8BDF8B515460E460B46A6
:1020D000009204460122022100F010F840B9334674
:1020E000002280212046009500F008F8002804D046
:1020F000606D40F0200060650320F8BD2DE9F843D5
:102100001E46914688460446089DFEF75BFE401B2E
:10211000351AFEF757FE074625480068C0F3CB3056
:10212000684338E0701C37D0FEF74CFEC01BA84255
:1021300003D215B1009860B32CE02068416821F00B
:10214000E00141606068B0F5827F0BD1A068B0F516
:10215000004F02D0B0F5806F04D12068016821F0F3
:1021600040010160A06AB0F5005F09D120680168F4
:1021700021F4005101602068016841F400510160C0
:10218000012084F85100002084F850000320BDE8AD
:10219000F8830025401E00902068816838EA01001D
:1021A00004D000214945BDD10020F0E70121F9E725
:1021B000140000207047FEF70BBE30B58FB0282109
:1021C0006846FEF711F914210AA8FEF70DF901215E
:1021D0000804CDE900100024029402250491CDE901
:1021E00007504FF4E01009906846FEF765FF08B10C
:1021F00072B6FEE70F20CDE90A054FF48060CDE905
:102200000C4002210AA80E94FEF77AFE002801D0A5
:1022100072B6FEE70FB030BD704710B5406A0021BE
:10222000C185C184FFF7D4FB10BD01680C3151E8B2
:10223000002F22F4907241E80023002BF5D10168B1
:10224000143151E8002F22F0010241E80023002B55
:10225000F5D1016B012909D101680C3151E8002F3A
:1022600022F0100241E80023002BF5D1202180F854
:10227000421000210163704708B590F842102229EE
:1022800001D0022008BD82684FF480539A4201D1E8
:10229000016921B1816A9A421BD04AB10AE0026801
:1022A000816A5268C2F308020A80816A891C08E0C8
:1022B000026972B10268526802F07F020A70816A94
:1022C000491C8162C18D491E0904090CC18503D0D6
:1022D0001BE002685268F1E70168CA6822F0200238
:1022E000CA600168CA6822F48072CA6001684A69DB
:1022F00022F001024A61202180F84210002141634E
:10230000026B012A03D0FFF71BFD002008BD01630B
:1023100001680C3151E8002F22F0100241E800233F
:10232000002BF5D101680A68D20602D50A6849680F
:102330000091818DFFF74BFBE7E7000070B5044685
:1023400000680169E26821F440511143016121698B
:10235000A0680843616908432168CA6841F20C63B8
:102360009A430243CA6020684169A26921F440711E
:10237000114341611E492068884202D1FEF766FE82
:1023800001E0FEF753FE00EBC00101EB00126068B4
:1023900064218000B2FBF0F3B3FBF1F36FF0180699
:1023A0007343B2FBF0F5B2FBF0F605EB8305322385
:1023B00003EB0515B5FBF1F5B6FBF1F605F0F005FD
:1023C00005EB0615B2FBF0F6B2FBF0F0B0FBF1F056
:1023D0006FF01802504306EB800003EB0010B0FBD7
:1023E000F1F0216800F00F002844886070BD000003
:1023F0000038014081628285C2850021416422212A
:1024000080F84210016921B10168CA6842F4807203
:10241000CA6001684A6942F001024A610068C16805
:1024200041F02001C160002070472DE9F843984633
:1024300017460D460446089E24E0701C22D0FEF785
:10244000C1FCA0EB0800B0421AD8CEB12068C16828
:10245000490717D5802D15D0402D13D00168C943E9
:1024600009070FD401680025406800902046FFF757
:10247000DCFE0820606484F840500120BDE8F88349
:102480000320FBE72068006835EA000004D0002044
:10249000B842D2D00020F1E70120F9E70148FFF768
:1024A00099BA00008C000020FEE70907090E0028F9
:1024B00004DB00F1E02080F80014704700F00F000A
:1024C00000F1E02080F8141D7047000070B515463B
:1024D0000C4606282DD2DFE800F02C030B121C233B
:1024E0002146BDE870401723154A802000F05EB8F1
:1024F00029462046BDE870401A4600F0AFBAFEF704
:1025000097FA08B10FA115E02046BDE8704000F031
:1025100033B829462046BDE870401A4600F0F0BAAC
:10252000FEF7F0F908B10BA104E00F490020487054
:10253000EAE70EA12046BDE8704000F025B8000093
:102540002A2D000853544152545F52585F46414966
:102550004C000000524144494F5F52455345545F7F
:102560004641494C0000000020000020554E4B4ED3
:102570004F574E5F434D440002230146014A8020DD
:1025800000F014B8282D000830B4002341B14FF4F6
:102590000072CC5C24B1934202D25B1C9BB2F8E780
:1025A0000A46014630BC8320AFF30080F0B51E4ED2
:1025B0001746ADF5037D32691C468AB3B4F5007F3A
:1025C0002FD804B167B3A5228DF800205A228DF8C8
:1025D000012001228DF802208DF803006D4601A82C
:1025E00000F089FB2146A81D00F085FB24B122469E
:1025F000394602A8FDF75FFEA11DA81CFDF758FF94
:1026000001462819083000F076FB0A34A2B24FF4D4
:102610007A7369463069FFF795FB0DF5037DF0BDD0
:10262000FFE70120F9E700002000002038B504464C
:1026300040F6890501226946284600F0BBF80028CB
:102640000DD19DF80000062C0AD040F0040000BF18
:102650008DF8000001226946284600F0C3F938BD14
:1026600000F0FB00F4E708B5010A8DF800108DF8C2
:10267000010002226946104600F082F908BD000000
:102680000549884201D3062070470449884201D396
:102690000520704704207047801A0600400D030093
:1026A000012211460148FEF788BB0000000C0140E2
:1026B000002201210148FEF780BB0000000C014010
:1026C0002DE9F84315460E00044603D115B101204B
:1026D000BDE8F8834FF47A78404600F035F90028D9
:1026E000F6D11E208DF800008DF8014000208DF8F5
:1026F0000200FFF7DDFF0E4F64230322694678686E
:10270000FEF7A6FF040007D15DB164232A463146D7
:102710007868FEF7F3FE0446FFF7C2FF1CB12046BF
:10272000D6E7FFF7BDFF404600F00EF9D0E7000006
:10273000180000202DE9F74181B01D4D00208DF8D3
:102740000000686816460F4698B106B18FB14FF485
:102750007A78404600F0F8F800280BD1FFF7A8FF80
:102760006423012201A96868FEF772FF040004D007
:1027700013E0012004B0BDE8F08164230122694622
:102780006868FEF765FF040007D15EB16423324636
:1027900039466868FEF7B2FE0446FFF781FF1CB1B8
:1027A0002046E7E7FFF77CFF404600F0CDF8E1E781
:1027B000180000202DE9F8431D4D044616466868B0
:1027C0000F46F0B106B1E7B14FF47A78404600F019
:1027D000BBF8002816D11D208DF80000200A8DF8C6
:1027E00001008DF8024000208DF80300FFF760FF24
:1027F0006423042269466868FEF72AFF040003D0B8
:102800000AE00120BDE8F8835EB164233246394610
:102810006868FEF773FE0446FFF742FF1CB12046CE
:10282000F0E7FFF73DFF404600F08EF8EAE70000D2
:102830001800002010B5074C00224FF480512046AC
:10284000FEF7BBFA002261142046BDE81040FEF7F7
:10285000B4BA0000000C01401CB50446C109400692
:10286000144A0023FDF7B0FC010E8DF80010010C96
:102870008DF80110010A8DF802108DF803000E4842
:10288000844204D975208DF80400812003E06B2078
:102890008DF804006F208DF80500022201A9982010
:1028A00000F06EF8002804D104226946862000F06A
:1028B00067F81CBD0048E801000B6B1B70B5214C8C
:1028C00086B0A17A21B10023E17B19B1012202E097
:1028D0000123F9E70022217C09B1012500E0002550
:1028E000A1898DF804200E0A8DF800608DF8011082
:1028F0008DF802308DF803008DF8055006226946E8
:102900008C2000F03DF8002819D140F236750122E4
:1029100002A92846FFF74EFF002810D1207C00288E
:102920009DF8080002D000F0FB0001E040F0040038
:102930008DF80800012202A9284600F053F806B0DD
:1029400070BD0000DC0100202DE9F0410546FEF7D6
:1029500039FA04464FF48066084F07E0FEF732FA72
:10296000001BA84202D30320BDE8F081314638465F
:10297000FEF71EFA0128F1D00020F5E7000C014017
:102980002DE9F743164D16468846686888B14FF41E
:102990007A773846FFF7D8FF00280BD1FFF788FE7B
:1029A0006423012269466868FEF752FE040003D0E2
:1029B0000AE00120BDE8FE835EB164233246414651
:1029C0006868FEF745FE0446FFF76AFE1CB1204624
:1029D000F0E7FFF765FE3846FFF7B6FFEAE70000CD
:1029E000180000202DE9F8431B4D04461646686880
:1029F0000F46D8B106B1CFB14FF47A784046FFF711
:102A0000A3FF002813D10D208DF80000200A8DF8B7
:102A100001008DF80240FFF74BFE64230322694654
:102A20006868FEF715FE040003D00AE00120BDE847
:102A3000F8835EB16423324639466868FEF708FEC3
:102A40000446FFF72DFE1CB12046F0E7FFF728FEF5
:102A50004046FFF779FFEAE71800002030B585B05F
:102A60000C00054601D0102A01D01CA12DE0142134
:102A70006846FDF7B9FC204600F038F90090201DAB
:102A800000F034F90190207A8DF80800607A8DF812
:102A90000900A07A8DF80A00E07A8DF80B00A08971
:102AA000ADF80C00A07B8DF80E00E07B00F001007B
:102AB0008DF80F00E07BC0F340008DF810006846F1
:102AC000FDF714FD28B109A12846FFF75DFD05B00B
:102AD00030BD2846FFF750FDF9E700004241445F52
:102AE000434F4E4649475F4C454E000052414449D2
:102AF0004F5F434F4E4649475F4641494C000000F7
:102B00002DE9F04114460E00074602D00CB1FF2C0F
:102B100001D90DA10EE00F4D687810B9FDF764FEE4
:102B200008B10DA105E0E1B23046FDF709FF28B17B
:102B30000BA13846BDE8F041FFF726BDAF8101206B
:102B40006870BDE8F08100004241445F54585F4C1A
:102B5000454E00002000002054585F425553590054
:102B600054585F53544152545F4641494C00000051
:102B7000FEF736F92E48406A2E4DC0F340702E49BC
:102B8000287001200860FFF718FBFFF72DF9FFF709
:102B900085F92B4829490C2201604FF4E13141604D
:102BA00000218160C160C0E904128161C161FFF749
:102BB00047F808B172B6FEE72148FFF7E9F908B116
:102BC00072B6FEE71E485838FDF7A8FD08B172B688
:102BD000FEE71C4C4CF6CC40206045F2555020607E
:102BE0000420606040F6C310A060FEF7EBF80646D4
:102BF00005E000BFFEF7E6F8801B322802D8E06847
:102C00000028F7D14AF6AA262660FEF7DBF86860AE
:102C1000FFF7D4F903E00A484830FFF765F90848A0
:102C20004830FDF7EFFD0028F5D12660F0E7000001
:102C30000010024000000020E00442420038014041
:102C40008C0000200030004070B522490A7822B183
:102C5000012A07D0022A39D110E0A52801D101208C
:102C6000087070BD00225A2803D0A528F9D00A7038
:102C700070BD022008700A814A8170BD0A89B2F5D0
:102C8000027F23D2144CA054521C92B20A81062A0D
:102C900008D12378A088012B18D1B0F5007F15D872
:102CA0000830488148890028E7D08242E5D1A588CC
:102CB0006019A91DC6880848FDF7FAFB864205D1B0
:102CC000607861882B46A21DFFF700FCBDE87040CC
:102CD00000F004B820000020F00500200248002188
:102CE000017001814181704720000020C178006897
:102CF00061F31F6070470170090A4170704701025B
:102D000002030405060708090A0B0C0D0E0F10102C
:102D1000000000000000000001020304060708098B
:102D200000000000010203044F4B53544D33324660
:102D30003130332D4532322D4252494447452D56CC
:102D400031000000642D0008000000203400000065
:102D500028010008982D000834000020240E0000EF
:102D60004401000800000000000000000100000015
:102D7000100000000000000000127A0000000000B7
:102D80000000000000000000000000000000000043
:082D900000000000000000003B
:04000005080000ED02
:00000001FF
