:020000040800F2
:10000000D0140020B50100088D29000885290008BA
:1000100089290008E1040008913B00080000000065
:100020000000000000000000000000006D3A000821
:10003000690600080000000091290008713A0008D4
:10004000CF010008CF010008CF010008CF01000850
:10005000CF010008CF010008CF010008CF01000840
:10006000CF010008CF010008CF010008CF01000830
:10007000CF010008CF010008CF010008CF01000820
:10008000CF010008CF010008CF010008CF01000810
:10009000CF010008CF010008CF010008CF01000800
:1000A000CF010008CF010008CF010008CF010008F0
:1000B000CF010008CF010008CF010008CF010008E0
:1000C000CF010008CF010008CF010008CF010008D0
:1000D000CF010008853B0008CF010008CF010008D0
:1000E000890D0008CF010008CF01000800F002F8D8
:1000F00000F050F814A696E8000CB244B344DA4578
:1001000001D100F047F8BAE80F000FA696E83000DA
:10011000A5EB040504EB0607AAEB0704A7F101070A
:100120004FEA15154FEA3414A4F10104AC4201D38F
:1001300000F030F813F0010F18BFFB1A43F0010371
:1001400000F001F8DBE71847A8440000C8440000AD
:10015000103A24BF78C878C1FAD8520724BF30C8F3
:1001600030C144BF04680C60704700007047000055
:100170000023002400250026103A28BF78C1FBD8B0
:10018000520728BF30C148BF0B6070471FB51FBD65
:1001900010B510BD00F069F91146FFF7F7FF04F044
:1001A000C9F800F087F903B4FFF7F2FF03BC00F0D1
:1001B0008FF900000948804709480047FEE7FEE73D
:1001C000FEE7FEE7FEE7FEE7FEE7FEE7FEE7FEE707
:1001D00004480549054A064B70470000753A000877
:1001E000ED000008D00E0020D0140020D010002018
:1001F000D010002053EA020C00F069802DE9F04B8A
:100200004FF00006002B1FBFB3FA83F503FA05F485
:1002100024FA05F65E4012BF1643B2FA82F502FADE
:1002200005F4C5F120051EBF22FA05FC44EA0C04C2
:10023000203556EA044C4FEA144418BF641C4FF0B2
:1002400000084FF00009904271EB030C39D30029EC
:1002500019BFB1FA81F701FA07F6B0FA80F700FA90
:1002600007F6C7F120071EBF20FA07FC46EA0C0676
:100270002037B6FBF4FCA7EB0507103F07F01F0B78
:10028000CBF120062CFA06F60CFA0BFB44BFB34662
:100290000026202FA4BF5E464FF0000B5BEA060C41
:1002A00008BF4FF0010B19EB0B0948EB0608ABFB3D
:1002B000027C06FB02CC0BFB03CCC01B71EB0C01D8
:1002C000C1E70B46024641464846BDE8F08B13B5F0
:1002D000084318BF4FF0FF300146AFF30080BDE880
:1002E0001C407047032A40F2308010F0030C00F0ED
:1002F000158011F8013BBCF1020F624498BF11F860
:1003000001CB00F8013B38BF11F8013BA2F1040218
:1003100098BF00F801CB38BF00F8013B11F0030390
:1003200000F02580083AC0F0088051F8043B083AF4
:1003300051F804CBA0E80810F5E7121D5CBF51F896
:10034000043B40F8043BAFF30080D20724BF11F810
:10035000013B11F801CB48BF11F8012B24BF00F875
:10036000013B00F801CB48BF00F8012B704710B5E6
:10037000203AC0F00B80B1E81850A0E81850B1E85E
:100380001850A0E81850203ABFF4F5AF5FEA027C9D
:1003900024BFB1E81850A0E8185044BF18C918C0CD
:1003A000BDE810405FEA827C24BF51F8043B40F86E
:1003B000043B08BF7047D20728BF31F8023B48BF53
:1003C00011F8012B28BF20F8023B48BF00F8012B91
:1003D00070474FF000020429C0F0128010F0030CA7
:1003E00000F01B80CCF1040CBCF1020F18BF00F828
:1003F000012BA8BF20F8022BA1EB0C0100F00DB8D7
:100400005FEAC17C24BF00F8012B00F8012B48BF34
:1004100000F8012B70474FF0000200B513469446D8
:100420009646203922BFA0E80C50A0E80C50B1F14C
:100430002001BFF4F7AF090728BFA0E80C5048BF60
:100440000CC05DF804EB890028BF40F8042B08BFFE
:10045000704748BF20F8022B11F0804F18BF00F8FA
:10046000012B7047704770477047754600F02CF8B5
:10047000AE4605006946534620F00700854618B091
:1004800020B5FFF7A5FEBDE820404FF000064FF075
:1004900000074FF000084FF0000BAC46ACE8C00975
:1004A000ACE8C009ACE8C009ACE8C00921F007011C
:1004B0008D46704710B50446AFF300802046BDE876
:1004C0001040FFF770BE0000004870471000002089
:1004D00001491820ABBEFEE726000200704700006D
:1004E000FEE7000000294FF6FF7200F0BA800129F4
:1004F00004D10023C90740F07F80B2E070B521F03D
:100500000103C3F1000C6FF0010E41F2210300BFA3
:1005100000EB0E04A578E47882EA052215B25600B5
:10052000002D48BF83EA420632B27500002A48BF58
:1005300083EA46052AB26E00002A48BF83EA4506D0
:1005400032B27500002A48BF83EA46052AB26E001F
:10055000002A48BF83EA450632B27500002A48BF28
:1005600083EA46052AB26E00002A48BF83EA4506A0
:1005700032B27500002A48BF83EA460585EA0422A4
:1005800014B25500002C48BF83EA42052AB26C0021
:10059000002A48BF83EA450422B26500002A48BF0A
:1005A00083EA44052AB26C00002A48BF83EA450466
:1005B00022B26500002A48BF83EA44052AB26C00D3
:1005C000002A48BF83EA450422B26500002A48BFDA
:1005D00083EA44052CB20EF1020E6A00002C0CEBEB
:1005E0000E0448BF83EA4502023491D10EF10203A2
:1005F000BDE87040C90734D0C05C82EA00210AB26D
:100600004B0041F22100002A48BF80EA410319B2A1
:100610005A00002948BF80EA430211B25300002962
:1006200048BF80EA420319B25A00002948BF80EA55
:10063000430211B25300002948BF80EA420319B2B5
:100640005A00002948BF80EA430211B25300002932
:1006500048BF80EA420319B25A00002948BF80EA25
:10066000430290B270470000704700000146002826
:100670004FF0010008BF7047F0B585B040F2C005EB
:10068000C2F200056A682AB1087A0D3810F1080F25
:1006900004D2012005B0BDE8F0407047486840F63C
:1006A0003F52C0F203020424904288BF052441F661
:1006B0007F224E7AC0F206029042A6F10500C0B237
:1006C00088BF0624032800F2998091E88D0009690B
:1006D00005F1080C8CE88D003804A96104BF0820DE
:1006E000A88200208DF806000DF10601802001226D
:1006F000012703F043FD0028CCD10DF106018A202B
:1007000001228DF8067003F039FD0028C2D1AF68D0
:1007100044F600027806F909C0F2E8120023FFF758
:1007200069FD00BA049040F60030C1F66B306B21D1
:1007300087424FF06F0088BF752188BF6FF07E0041
:100740008DF80E108DF80F000DF10E019820022289
:1007500003F014FD00289DD104A98620042203F093
:100760000DFD002896D100270DF106018F200222F1
:10077000ADF8067003F002FD00288BD1287C311FF4
:100780008DF806008DF808100DF106018B2004226B
:100790008DF807408DF8097003F0F0FC00287FF415
:1007A00079AF204603F0BAFA00287FF473AFFF2038
:1007B00003F080FC00287FF46DAFA87D03F0C2FC3D
:1007C00000287FF467AF40F20470C0F20010CDF84B
:1007D00006000DF106019520042203F0CFFC00284D
:1007E0007FF458AF03F0BAFA00287FF453AF95F9BD
:1007F00013101C2908DD122020E000BF012005B0E5
:10080000BDE8F040704700BF192901DD0E2015E05A
:10081000162901DD0A2011E0132901DD07200DE072
:10082000102901DD042009E00D2901DD012005E08A
:100830006FF004000A29C8BF6FF001008DF80600B0
:1008400004208DF807000DF106018E20022203F02E
:1008500095FC00287FF41EAF96208DF8100004A9A7
:1008600040F6AC00012203F0F3FC00287FF412AF45
:1008700003F010FC00287FF40DAF4FF6FF70ADF8C9
:10088000100004A90220022203F078FC00287FF463
:1008900001AF012028800020A87003F0D3FB0020C6
:1008A00005B0BDE8F0407047002804BF0120704744
:1008B000B0B582B040F6004440F2C001C4F2010479
:1008C000C2F2000100220A808A70CA70C1E90102E6
:1008D000C1E90322C1E9052220464FF4805100F00E
:1008E0000BFC20464FF40051002200F005FC20468E
:1008F0000121012200F000FC20460221012200F02B
:10090000FBFB022000F0C4FA20460221002200F086
:10091000F3FB142000F0BCFA20460221012200F073
:10092000EBFB0A2000F0B4FA00F0ECFB054600BF38
:1009300020464FF4806100F0D9FB012808D100F077
:10094000E1FB401BC0087C28F2D9032002B0B0BDF7
:1009500000208DF8040001A98020012203F00EFC84
:100960000028F3D10320C4F20100019001A99720CF
:10097000042203F003FC0028E8D101208DF80400D4
:1009800001A99620012203F0F9FB0028DED17F2087
:100990008DF8040001A98920012203F0EFFB02B0C9
:1009A000B0BD000040F2C000C2F2000040787047C5
:1009B00040F2C000C2F200000121C1707047000087
:1009C000002804BF0020704770B584B04FF48471D4
:1009D0000446FFF7FEFC40F2C006C2F20006F078C3
:1009E00000284FF000000BD0F070ADF80C0003A908
:1009F0001220022203F03CFA20B1052020700120D1
:100A000004B070BD9DF80C009DF80D108DF80E001F
:100A100041EA00258DF80F100DF10E01022002228F
:100A2000A4F8065103F0AAFBE8070DD1A8B281078C
:100A300022D4810564D57178002961D000207070BE
:100A400003F000FB03205FE040F600450020C4F205
:100A50000105707028464FF48051002200F04CFBD5
:100A600028464FF40051002200F046FB0120207080
:100A7000B1780129C4D14BE010F0600F43D10DF1E2
:100A800007011320022203F0F3F90028B5D19DF8E5
:100A9000072084F8002132B19DF80800611C03F0A2
:100AA00085F90028A9D10DF109011420032203F0D2
:100AB000DFF90028A1D19DF809009DF90A1000EB8B
:100AC00080004042A4F8020101EB810000294FF0B0
:100AD0000201217000F10102A0F10100B1784FEA9A
:100AE000520283B200EBD33048BF42100129A4F870
:100AF000042108BF00F0FEF8012004B070BD00BF63
:100B000010F0600F0AD004202070B078012801D1C5
:100B100000F0F0F8012004B070BD00BF002004B068
:100B200070BD000010B586B040F2C001C2F20001F5
:100B300001F1040E9EE81D5003940C78019202937B
:100B4000CDF810C0CDF814E0FFF7AEFE38B934B1DF
:100B500001A8FFF78BFD002808BF00F0CBF806B016
:100B600010BD00002DE9F04182B0064600294FF08B
:100B7000010018BF002E03D102B0BDE8F08100BF14
:100B800040F2C005C2F200052A78002AF4D0687845
:100B900020B1022002B0BDE8F08100BF40F6004461
:100BA00001208846C4F20104A87000F0ABFA0746A1
:100BB00020464FF4806100F099FA01280AD100F034
:100BC000A1FAC01BC0087C28F2D9032002B0BDE8FE
:100BD000F08100BF0E20ADF8030020460121002265
:100BE00000F08AFA68680DF103010222642300F024
:100BF000DDFF48B1054620460121012200F07CFAC4
:100C0000284602B0BDE8F081686831464246642358
:100C100000F0CCFF064620460121012200F06CFACC
:100C20003046002EA8D100F06DFA064620464FF45B
:100C3000806100F05BFA012806D100F063FA801BA6
:100C4000B0F57A7FF2D3C0E7404603F033FA0028CC
:100C500092D1EC680DF1050140F6890003F07EF9B0
:100C600000287FF489AF41F68020C0F2060084425C
:100C70009DF805004FF0000100F0FB0038BF012196
:100C800040EA81008DF805000DF1050140F689006C
:100C9000012203F0DDFA00287FF46EAF4FF6FF70FB
:100CA000ADF806000DF106010220022203F066FAFB
:100CB00000287FF461AF03F0D9F9022000F0E8F8D2
:100CC0004EF20420ADF8000000208DF802006946C5
:100CD0008320032203F052FA30B1044603F0B2F944
:100CE000204602B0BDE8F08101206870002002B00B
:100CF000BDE8F081B0B582B040F2C005C2F2000597
:100D000029784FF0FF3001298DF80400ADF802007A
:100D100004D1687830B1022002B0B0BD012002B029
:100D2000B0BD00BFFF2003F0C5F908B102B0B0BDEF
:100D30004FF6FF70ADF806000DF106010220022209
:100D400003F01CFA0028F1D140F60044C4F201047B
:100D500020464FF40051002200F0CEF920464FF417
:100D600080510122012400F0C7F9012000F090F821
:100D70000DF102018220032203F000FA002804BFD3
:100D8000AC70002002B0B0BD4FF4006000F09AB823
:100D9000014690F82100022816D10868D1E90FC356
:100DA000026822F00E020260026822F00102026074
:100DB000012000FA03F2CCF8042081F82100002081
:100DC000002281F82020704704208863012000223F
:100DD00081F820207047000090F82110022923D1CB
:100DE000026840F2040C1168C4F2020C21F00E01FA
:100DF000116013682F21C4F202018A4223F001031B
:100E0000136015DD3023C4F202039A421CD0442340
:100E1000C4F202039A421BD05823C4F202039A423E
:100E20001CD14FF4803321E00421816301207047FD
:100E30000823C4F202039A420ED01C23C4F2020318
:100E40009A420BD1102311E04FF480730EE000BFE3
:100E50004FF480530AE000BF012307E00CF1680162
:100E60004FF080738A4208BF4FF480130121CCF801
:100E7000003080F82110416B0022002980F82020EA
:100E800004BF0020704780B58847002080BD000067
:100E9000B0B5044600F036F9054640F20000C2F253
:100EA00000000078611C18BF044400BF00F02AF95C
:100EB000401BA042FAD3B0BDB0F5006F18BF704719
:100EC000FFF776BD40F21441C4F201010A68024204
:100ED00014BF08607047FFF7EFBF00002DE9F04F27
:100EE00082B00E68002E00F0FD8041F20042C4F294
:100EF0000102042340F2004E904208BF03234FF644
:100F0000FF7CC4F2010E009300240123C1F2100CF7
:100F10004FF0000A4FF000094BE000BF41F2000221
:100F2000C4F20102009F904208BF022704F00C03A4
:100F30000F229A402BEA020207FA03F34FEA9A05BE
:100F40001A4346F825204E6840F20C45F202DEF8BE
:100F5000082054BF22EA080242EA0802C4F201054E
:100F6000CEF808202A68B30254BF22EA080242EAF7
:100F700008022A60B303DEF8042054BF22EA080204
:100F800042EA0802F303CEF80420DEF800204FF016
:100F9000010354BF22EA080242EA0802CEF8002008
:100FA0000E680AF1010A36FA0AF204F1040400F0AC
:100FB000998003FA0AFB16EA0B08F1D04E686645E1
:100FC00012DC122E56D8DFE806F0350B4D49555588
:100FD000555555555555555555555545510000BF15
:100FE000D1F80C9046E000BF4FF6FF72C1F221022B
:100FF00096420FDC0022C1F2110296421AD0002262
:10100000C1F21202964215D00022C1F2210296428C
:1010100010D02FE00022C1F2220296420AD0002214
:10102000C1F23102964205D00022C1F2320296424C
:1010300020D100BF8A684AB1012A14BFC0F814B099
:10104000C0F810B04FF0080914E000BF4FF00409D9
:1010500010E000BFCA6802F104090BE04FF000097C
:1010600008E000BFCA6802F1080903E0CA6802F19B
:101070000C0900BF02462646B8F5807F24BF043223
:10108000203E17680F25B54027EA050509FA06F640
:1010900035431560CA79D2067FF582AF41F2180355
:1010A000C4F202031A68AEF57E7642F001021A60BD
:1010B0001A6802F001020192019A2AF0030256F81E
:1010C00002B040F60002C4F20102904208D040F69D
:1010D0000042C4F2010290427FF420AF012725E7CD
:1010E000002723E702B0BDE8F08F000080680840C9
:1010F00018BF012070470000002A08BF09040161E1
:101100007047000040F6CC60C2F2000000687047F3
:1011100040F2000040F6CC61C2F20000C2F20001D1
:1011200000780A68104408607047000080B542F2F9
:101130000000C4F20200016841F0100101600320C8
:1011400000F08CF80F2000F005F800F027F80020E0
:1011500080BD000070B540F20006C2F2000640F209
:1011600008013278C2F200014FF47A730968B3FBC8
:10117000F2F20446B1FBF2F1084600F07FFF0F2CBB
:101180004FF0010508D838B94FF0FF302146002252
:10119000002500F037F87460284670BD82B041F237
:1011A0001800C4F202000168022241F0010101604E
:1011B000016801F0010101910199416841F08051FC
:1011C0004160406800F08050009000980420C4F214
:1011D0000100016862F31A61016002B0704700000B
:1011E000002848BF704700F01F01012202FA01F1F8
:1011F0001C2202EAD0004EF20012CEF20002815010
:101200007047000010B54EF60C5CCEF2000CDCF816
:101210000030C3F3022E8EF00704042C28BF0424F0
:10122000BEF103034FF0FF3E0EFA04F438BF002373
:10123000A14399400EFA03F39A43114300F00F02C1
:1012400000F160430901043A03F564436244002855
:1012500048BF02F10C03197010BD00004EF60C518E
:10126000CEF200010A684FF6FF031A4060F30A222B
:1012700042F0806040F0FD7008607047002804BFB5
:10128000012070472DE9F04381B042F20008C4F21A
:1012900002080446D8F800000D4600F0070081421D
:1012A0000CD9D8F8000020F007002843C8F8000047
:1012B000D8F8000000F00700A8426CD1206841F285
:1012C00004098107C4F2020917D5410705D5D9F8E9
:1012D000001041F4E061C9F80010010705D5D9F804
:1012E000001041F46051C9F80010D9F80010A2684C
:1012F00021F0F0011143C9F80010C00742D1D8F81D
:10130000000000F0070085420CD2D8F8000020F061
:1013100007002843C8F80000D8F8000000F00700D4
:10132000A84238D12068410707D5D9F80010E268F3
:1013300021F4E0611143C9F80010000708D5D9F87D
:101340000000216920F4605040EAC100C9F80000A3
:10135000D9F8002002F00C00082841F20020C0F269
:101360007A004DD144F2E053C2F38341C0F600034A
:10137000595CD20338D440F60010C0F23D00484317
:101380003EE000BF606859F8041C022808D001281C
:1013900026D1890306D4012001B0BDE8F08300BF47
:1013A0008901F8D5D9F8001021F003010843C9F8E4
:1013B0000000FFF7A7FE064641F28837D9F8000083
:1013C000616800F00C00B0EB810F98D0FFF79AFE37
:1013D000801BB842F2D9032001B0BDE8F08300BF02
:1013E0008907D8D5DEE700BFD9F8002044F2DE53E4
:1013F000C2F34042C0F600039A5C4843B0FBF2F0EF
:10140000D9F8001044F2C652C1F30311C0F600022D
:10141000515C40F2080220FA01F140F20400C2F2ED
:1014200000000068C2F200021160FFF793FE002086
:1014300001B0BDE8F083000040F2080041F2040171
:10144000C2F20000C4F202010068096844F2D652F8
:10145000C1F30221C0F60002515CC8407047000091
:1014600040F2080041F20401C2F20000C4F202019D
:101470000068096844F2D652C1F3C221C0F60002E6
:10148000515CC84070470000002804BF012070472D
:101490002DE9F04182B00446007841F20006C00711
:1014A000C4F202060CD0706800F00C00042840F072
:1014B00081803068800303D56068002800F0468191
:1014C000207880071BD5706810F00C0F09D0706869
:1014D00000F00C00082840F087807068C00300F11D
:1014E00083803068800703D52069012840F02E8171
:1014F0003068616920F0F80040EAC100306020786F
:10150000000713D4207840072CD4E569002D00F0A3
:101510001881706800F00C00082840F0A780012DA9
:1015200040F00481012002B0BDE8F081A0690028EC
:1015300000F084800020C4F242200121C0F8801411
:10154000FFF7E0FD054600BF706A800700F1B2803A
:10155000FFF7D8FD401B0228F6D9032002B0BDE8F2
:10156000F08100BFF0695FEAC00808D4F06940F07C
:101570008050F061F06900F080500090009847F2D0
:101580000007C4F200073868C00549D4386840F441
:1015900080703860FFF7B6FD054600BF3868C005AB
:1015A0003ED4FFF7AFFD401B6428F7D9032002B0FB
:1015B000BDE8F081706800F00C00082803D1706865
:1015C000C0033FF576AF61683068002900F00C81F8
:1015D000B1F5A02F00F00081B1F5803F40F01A81F5
:1015E00040F480301CE100BF2069002840F2000078
:1015F000C4F2422000F0888001210160FFF782FDE3
:10160000054600BF306880073FF572AFFFF77AFDEF
:10161000401B0228F6D9032002B0BDE8F08100BFCC
:10162000E168306A002900F09D80052900F0928071
:10163000012940F0AF8040F00100B1E00020C4F289
:1016400042200021C0F88014FFF75CFD054600BF72
:10165000706A80077FF556AFFFF754FD401B0228E4
:10166000F6D9032002B0BDE8F08100BF0027C4F224
:10167000422700203866FFF745FD022D05460DD1B3
:101680003068800140F1DE80FFF73CFD401B0228FE
:101690004FF00300F4D902B0BDE8F081306880015A
:1016A0004FD5FFF72FFD401B02284FF00300F5D95F
:1016B000F1E700BF40F20800C2F20000006844F603
:1016C000D351C1F26201A0FB0101480A019000BFA1
:1016D00000BF0198411E002801913FF413AF00BFE5
:1016E0000198411E002801913FF40CAF00BF019802
:1016F000411E002801913FF405AF00BF0198411E33
:1017000000280191E4D1FDE600210160FFF7FAFC19
:10171000054600BF306880077FF5F1AEFFF7F2FCA9
:10172000401B02284FF00300F4D9B4E77068216A27
:1017300000F480328A4209D1616A00F47010884254
:1017400004D1002002B0BDE8F08100BF012002B04A
:10175000BDE8F08140F004003062306A40F00100E2
:101760001EE000BF20F001003062306A20F004006B
:101770003062FFF7C7FC054641F28837306A8007C0
:1017800020D5FFF7BFFC401BB8424FF00300F5D94E
:1017900081E700BF20F001003062306A20F00400D1
:1017A0003062FFF7AFFC054641F28837306A8007A8
:1017B00008D4FFF7A7FC401BB842F7D9032002B0BA
:1017C000BDE8F081B8F1000F3FF59FAEF06920F061
:1017D0008050F06199E600BF40F4802030603068AE
:1017E00040F480301CE000BF20F48030306030686E
:1017F00020F480203060FFF785FC054630688003C8
:101800007FF55EAEFFF77EFC401B64284FF00300BF
:10181000F4D940E720F480303060306820F4802034
:101820003060FFF76FFC0546306880033FF548AE37
:10183000FFF768FC401B6428F6D9032002B0BDE81E
:10184000F08100BF206AB0F5803F05D17168A268C1
:1018500021F40031114371607168626A21F47411DE
:1018600011430843706001203866FFF74BFC0446C3
:10187000306880013FF565AFFFF744FC001B02288C
:101880004FF00300F4D906E770B528B1416A29B1D9
:1018900000210161142106E0012070BD4168B1F50D
:1018A000827F02D01C21002242500026866290F8DE
:1018B000511029B980F85060054600F039F82846E3
:1018C000022180F8511090E82E0002F482720C6818
:1018D00003F4044324F040040C601A4405F400634C
:1018E00005691A4405F0020345691A4405F001032D
:1018F0008569C4691A4405F400731A4404F0380376
:10190000046A1A4404F08003846A1A4304F40053FE
:101910001A430A60042202EA15424A60CA6922F4A4
:101920000062CA610121466580F85110304670BDE1
:1019300070B586B040F60004C4F20104006804F5F6
:101940002051002688420596CDE90366029601D013
:1019500006B070BD41F21800C4F20200016802AD89
:1019600041F480510160016801F4805101910199B5
:10197000016841F0040101600068294600F004009C
:1019800001900198A020029002200390032005906E
:101990002046FFF7A3FA4020CDE90206204629465B
:1019A0000496FFF79BFA06B070BD00002DE9F041E8
:1019B00082B0044690F85100012819D160681D4694
:1019C00017460E46B0F5827F01D1A068A0B1FFF79F
:1019D00099FB8046002E4FF0010018BF002F03D165
:1019E00002B0BDE8F08100BF94F85000012811D189
:1019F000022002B0BDE8F081042084F851002046A6
:101A0000314632463B46009500F0CEF902B0BDE8C3
:101A1000F08100BF012084F850000420002184F8E8
:101A200051006165A663A787E7872163A186E186E8
:101A3000A2682068B2F5004F2164616438D0016863
:101A4000490640D5E168E08F002944D000287BD0CA
:101A5000681C0CD11BE000BFC068A16B21F8020B11
:101A6000A163E08F0138E087E08F00286CD0206808
:101A70008168C907F0D1FFF745FBA0EB0800A84239
:101A8000F2D342E0FFF73EFBE08F00285CD02068F5
:101A90008168C907F6D0C068A16B21F8020BA16369
:101AA000E08F0138E087E08F0028F0D14CE000BFE4
:101AB000016821F040010160016821F4804101606A
:101AC00001684906BED4016841F040010160E16847
:101AD000E08F0029BAD1B8B3681C0CD124E000BF54
:101AE000007BA16B0870A06B0130A063E08F013810
:101AF000E087E08F40B320688168C907F0D1FFF725
:101B000001FBA0EB0800A842F3D3012084F85100A8
:101B1000002084F85000032002B0BDE8F08100BF2F
:101B2000FFF7F0FAE08F78B120688168C907F7D035
:101B3000007BA16B0870A06B0130A063E08F0138BF
:101B4000E087E08F0028EFD16068B0F5827F11D187
:101B5000A068B0F5004F02D0B0F5806F0AD12168BF
:101B6000B0F5806F0A6822F040020A6002D1204678
:101B7000012101E02046802100222B46CDF8008083
:101B800001F0E4FE28B1606D40F020006065202087
:101B90006065012084F85100002084F85000606DD9
:101BA000002818BF012002B0BDE8F0812DE9F04106
:101BB00082B01D4616460F460446FFF7A3FA94F876
:101BC000511001290ED18046002F4FF0010018BF9F
:101BD000002E03D102B0BDE8F08100BF94F85000A0
:101BE000012803D1022002B0BDE8F081012084F871
:101BF00050000320002184F8510061652763A68608
:101C0000E686A163A187E187A0682164B0F5004F53
:101C10002068616407D1016821F04001016001681A
:101C200041F4804101600168490603D4016841F034
:101C3000400101606168731EE268B1FA81F1B3FA94
:101C400083F349095B09B2F5006F41EA030139D119
:101C500031B137F8021BC1602763E08E0138E0869E
:101C6000E08E002870D0681C0BD11AE0216B31F88F
:101C7000022BC2602163E08E0138E086E08E0028EE
:101C800062D0206881688907F0D4FFF73BFAA0EBA7
:101C90000800A842F2D338E0FFF734FAE08E0028BB
:101CA00052D0206881688907F6D5216B31F8022B64
:101CB000C2602163E08E0138E086E08E0028F0D11A
:101CC00042E000BF39B139780173206B01302063E5
:101CD000E08E0138E086E08EB0B3681C0BD123E0C3
:101CE000216B09780173206B01302063E08E01388D
:101CF000E086E08E40B3206881688907F0D4FFF762
:101D000001FAA0EB0800A842F3D3012084F85100A7
:101D1000002084F85000032002B0BDE8F08100BF2D
:101D2000FFF7F0F9E08E78B1206881688907F7D570
:101D3000216B09780173206B01302063E08E01383C
:101D4000E086E08E0028EFD12046022101222B46BA
:101D5000CDF8008001F0FAFD40B920468021002234
:101D60002B46CDF8008001F0F1FD28B1606D40F008
:101D70002000606520206065A06838B900200190CF
:101D80002068C1680191806801900198012084F861
:101D90005100002084F85000606D002818BF012019
:101DA00002B0BDE8F08100002DE9F04383B01E468B
:101DB00015460F460446FFF7A5F994F851108146E1
:101DC000012909D1002F4FF0010018BF002D0FD1BC
:101DD00003B0BDE8F08300BF6068B0F5827F0DD12D
:101DE00004294FF00200F3D1A1680029EAD0EFE7FF
:101DF000002EEDD094F85000012803D1022003B04A
:101E0000BDE8F083012084F8500094F851000021CF
:101E100004281CBF052084F851006165A563E6878E
:101E2000A6872763E6862068A68621646164016828
:101E3000490603D4016841F0400101606168731EE6
:101E4000E268B1FA81F1B3FA83F3DDF82880490939
:101E50005B09B2F5006F41EA030165D131B137F892
:101E6000021BC1602763E08E0138E086012518F16E
:101E7000010032D102E000BFFFF744F9E08E18B94B
:101E8000E08F002800F0B8802068816889070CD5B1
:101E9000E18E51B1012D08D1216B002531F8022BC3
:101EA000C2602163E18E0139E1868168C907E3D010
:101EB000E18F0029E0D0C068A16B012521F8020B59
:101EC000A163E08F0138E087D6E700BFFFF71AF97A
:101ED000A0EB0900404580F0AF80E08E18B9E08F9C
:101EE000002800F089802068816889070CD5E18E80
:101EF00051B1012D08D1216B002531F8022BC260B0
:101F00002163E18E0139E1868168C907DED0E18F66
:101F10000029DBD0C068A16B012521F8020BA16369
:101F2000E08F0138E087D1E739B139780173206B50
:101F300001302063E08E0138E086012518F10100B0
:101F400032D101E0FFF7DEF8E08E10B9E08F002813
:101F500052D02068816889070ED5E18E61B1012DCC
:101F60000AD1216B002509780173216B20680131AA
:101F70002163E18E0139E1868168C907E2D0E18FF2
:101F80000029DFD0C068A16B01250870A06B01306B
:101F9000A063E08F0138E087D4E700BFFFF7B2F815
:101FA000A0EB0900404547D2E08E08B9E08F18B396
:101FB0002068816889070ED5E18E61B1012D0AD1B3
:101FC000216B002509780173216B206801312163A1
:101FD000E18E0139E1868168C907DFD0E18F0029F0
:101FE000DCD0C068A16B01250870A06B0130A06334
:101FF000E08F0138E087D1E72046022101224346E5
:10200000CDF8009001F0A2FC40B9204680210022CA
:102010004346CDF8009001F099FCB8B1606D40F0F6
:102020002000606520206065002084F850000120B9
:1020300003B0BDE8F08300BF012084F85100002008
:1020400084F85000032003B0BDE8F083A06838B9DD
:10205000002002902068C168029180680290029876
:10206000012084F85100002084F85000606D0028A1
:1020700018BF012003B0BDE8F0830000411E00201E
:10208000B0EB116F1CBF012070474EF21002CEF270
:10209000000251604EF62351CEF20001F0230B7086
:1020A00007219060116070477047000001F042BB4B
:1020B000B0B582B001680A68CC684B6902F02F05A0
:1020C000202D04F0200505D125B102B0BDE8B040B7
:1020D00001F0D8BC5FEA027C1EBF03F0010E04F4DD
:1020E000907313EB0E0341D1036BD50618D5012B6A
:1020F00016D114F0100313D0002201920A68019245
:102100004A680192019A496949064BD4818DC28D72
:10211000C38D002B18BF914240F0F48102B0B0BDD6
:1021200013062DD514F080032AD090F84120212ADF
:10213000F4D18268B2F5805F03D10269002A00F011
:102140006782026A531C036212784A60C28C013AA9
:102150001304C284E2D1C86820F08000C860C86857
:1021600040F04000C86002B0B0BD00BFD30718BF48
:1021700014F4807340F0D080530700F1D380D8E08E
:102180005206CBD514F04002C8D0CA6822F04002F3
:10219000CA60202180F8411002B0BDE8B04000F0D4
:1021A000EFBB00BFC16B0A68526893B2002BB5D079
:1021B000858DAB42B2D2C2858969202900F0A18009
:1021C000016851E8031F026821F4807142E803139B
:1021D000DBB1016851E8031F026821F4807142E815
:1021E000031393B1016851E8031F026821F4807161
:1021F00042E803134BB1016851E8031F026821F460
:10220000807142E80313002BDAD1016851E8051F01
:10221000026821F0010142E80513C3B3016851E8E7
:10222000051F026821F0010142E805137BB3016834
:1022300051E8051F026821F0010142E8051333B39C
:10224000016851E8051F026821F0010142E8051309
:10225000002BDAD11BE000BF016851E8051F0268BE
:1022600021F0400142E80513DBB1016851E8051F88
:10227000026821F0400142E8051393B1016851E87A
:10228000051F026821F0400142E805134BB10168C7
:1022900051E8051F026821F0400142E80513002BB8
:1022A000DAD1202180F8421000210163016851E851
:1022B000031F026821F0100142E80313DBB101683B
:1022C00051E8031F026821F0100142E8031393B1A3
:1022D000016851E8031F026821F0100142E803136E
:1022E0004BB1016851E8031F026821F0100142E878
:1022F0000313002BDAD1C16B04460846FEF748FDF4
:10230000204602214163818DC28D891A89B202B0B3
:10231000BDE8B040FFF7C8BE436C43F0010343641F
:10232000530706D5BEF1000F03D0436C43F0020300
:102330004364930706D5BEF1000F03D0436C43F00E
:1023400004034364BCF1000F06D55EEA050303D025
:10235000436C43F008034364436C002B3FF4DEAE50
:10236000920605D525B1044601F08CFB2168204674
:102370004969426C01F0400102F00802891800F03E
:10238000B98000BF016851E8031F026821F4907111
:1023900042E80313BBB3016851E8031F026821F44C
:1023A000907142E8031373B3016851E8031F026898
:1023B00021F4907142E803132BB3016851E8031F25
:1023C000026821F4907142E80313002BDAD11AE07D
:1023D000016851E8051F026821F0010142E8051378
:1023E000DBB1016851E8051F026821F0010142E8F4
:1023F000051393B1016851E8051F026821F001013E
:1024000042E805134BB1016851E8051F026821F04D
:10241000010142E80513002BDAD1016B012924D117
:10242000016851E8031F026821F0100142E803131C
:10243000DBB1016851E8031F026821F0100142E896
:10244000031393B1016851E8031F026821F01001E2
:1024500042E803134BB1016851E8031F026821F001
:10246000100142E80313002BDAD1202180F842103A
:102470000021016301684969490640F1C380016890
:1024800051E8051F026821F0400142E80513DBB165
:10249000016851E8051F026821F0400142E8051378
:1024A00093B1016851E8051F026821F0400142E83C
:1024B00005134BB1016851E8051F026821F0400186
:1024C00042E80513002BDAD1C16B002900F09A8095
:1024D00043F67922C0F60002044608464A63FEF736
:1024E0007BFC00283FF41AAEE06B416B02B0BDE804
:1024F000B04008470446FFF7D9FD0020606402B0F1
:10250000B0BD00BF891A00BF026852E8032F0368FC
:1025100022F4907243E80325BDB3026852E8032F0A
:10252000036822F4907243E8032575B3026852E809
:10253000032F036822F4907243E803252DB3026849
:1025400052E8032F036822F4907243E80325002D1C
:10255000DAD11AE0026852E8052F036822F001027E
:1025600043E80525DDB1026852E8052F036822F033
:10257000010243E8052595B1026852E8052F03687A
:1025800022F0010243E805254DB1026852E8052F0B
:10259000036822F0010243E80525002DDAD120224C
:1025A00080F8422000220263026852E8032F036889
:1025B00022F0100243E80325DDB1026852E8032F40
:1025C000036822F0100243E8032595B1026852E83F
:1025D000032F036822F0100243E803254DB102687F
:1025E00052E8032F036822F0100243E80325002D70
:1025F000DAD1022289B2426302B0BDE8B040FFF7EF
:1026000053BD00BF02B0BDE8B040FFF74FBD00BFF3
:10261000026A32F8023B6FF35F234B60026295E57A
:10262000002804BF0120704710B5044690F841000F
:1026300028B9002084F84000204600F063F82420E8
:1026400084F841002068D4E90212C36823F40053DF
:10265000C360036923F440531A430261D4E904239D
:102660001143C268194341F20C639A431143C1609C
:102670004169A26921F44071114343F60002C4F29A
:1026800001029042416103D0FEF7D6FE02E000BF96
:10269000FEF7E6FED4E90023192148439900B0FB78
:1026A000F1F048F21F5CC5F2EB1CA0FB0C314FF6B9
:1026B0009C734909C0F6FF7301FB0300322303EB4F
:1026C0000010A0FB0C03F02000EA531000EB0110F7
:1026D000C3F34311084490601069202120F4904016
:1026E0001061506920F02A005061D06840F4005019
:1026F000D0600020606484F8411084F84210606368
:1027000010BD000070B586B040F60004C4F20104AC
:10271000006804F54051002688420596CDE903661D
:10272000029601D006B070BD41F21800C4F202005A
:10273000016802AD41F480410160016801F480410B
:1027400001910199016841F0040101600068294686
:1027500000F00400019001984FF4007002900220F4
:102760000390032005902046FEF7B8FB4FF48060ED
:10277000CDE90206204629460496FEF7AFFB252048
:1027800000210022FEF73EFD2520FEF729FD06B0C0
:1027900070BD000090F84230202B07D100294FF087
:1027A000010318BF002A05D11846704702231846B6
:1027B000704700BF00230363816222218285C285A6
:1027C000436480F842100169006819B1C16841F49E
:1027D0008071C160416941F001014161C16841F00E
:1027E0002001C1601846704700F0F2BF2DE9F043A8
:1027F00081B0044690F84100202809D100294FF00B
:10280000010018BF002A07D101B0BDE8F08300BF66
:10281000022001B0BDE8F0830020606421201D4645
:102820000E4684F841001746FEF76CFCA784E78447
:10283000A1688146B1F5805F02D1206900285DD092
:1028400037460020E28C2168002A5DD06A1C24D023
:10285000002D4AD0804600BF0868000608D4FEF765
:1028600051FCA0EB0900A8427AD82168C868F3E7B8
:1028700017B117F8010B04E038F8020B00276FF3CB
:102880005F204860E08C0138E084E08C0028E3D1D0
:102890003AE000BF0A68120609D40A68120606D494
:1028A0000A6812065CBF0A685FEA0262F2D51FB1CD
:1028B00017F8012B05E000BF30F8022B00276FF35B
:1028C0005F224A60E28C013AE284E28C002AE4D181
:1028D0001AE000BF30F8022B00276FF35F224A6036
:1028E000E28C013AE284E28C72B10A68120635D5B4
:1028F000002FEFD017F8012BF1E700BF002730467B
:10290000E28C2168002AA1D1086840061ED42DB3AC
:10291000681C14D1086840062AD40868400627D4E9
:102920000868400624D4086840064FF00000F1D53E
:102930000DE000BF2068C1680068400618D4FEF7AB
:10294000E1FBA0EB0900A842F4D909E00020202116
:1029500084F8411001B0BDE8F08300BFFEF7D2FB60
:102960000320202184F8411001B0BDE8F08300BFAE
:102970000020202184F8411001B0BDE8F083000060
:1029800070470000FEE70000FEE70000FEE70000E1
:10299000704700002DE9F043ADF55B7D002800F0A5
:1029A000868101780139042900F28181DFE811F084
:1029B0000600660024007F01A40000BF40F2BC4472
:1029C000C2F200042078002800F0C6806078002859
:1029D00000F0C280E078217900228142627080F0AC
:1029E00001810120A070FEF78DFB61790844A06091
:1029F0000DF55B7DBDE8F08340F2BC40C2F2000003
:102A00000178002900F0D080C6884FF4C261FDF73C
:102A100002FD40F2DC05C2F200052869002800F042
:102A20004681310A8DF80D111021ADF80E1145F2D5
:102A30004251C5F25231449145F65471C5F65401E4
:102A4000459145F25F41C4F6495145F6A5204691AE
:102A500044F64571C8F2013042ACC5F2554142908E
:102A6000A01C479116218DF80C61FDF73BFD2969EB
:102A7000ADF82001084621461A2214E1D0F80211CF
:102A800090F80041009100218DF804408DF8051068
:102A90002CB1411C684606302246FDF723FC40F26B
:102AA000DC08C2F20008D8F81000002800F0FF800F
:102AB00045F6A520C8F20110A61D4290002042ADA7
:102AC000ADF80C01300A8DF80F0105F108006946D8
:102AD0003246AF1C8DF80E61FDF749FC04F10C0184
:102AE0003846FDF7FFFC71190881D8F8100004F191
:102AF00010022946D7E000BF40F2DC05C2F2000513
:102B00002869002800F0D3804FF46021439144F2FB
:102B10005211C4F64411449145F64F71C5F2492152
:102B2000459145F6517145F6A520C4F24611C8F20B
:102B3000013042AC469144F649414290A01CADF8A8
:102B40001C111421FDF7CEFC2969ADF81E010846C1
:102B500021461822A7E000BF40F2DC05C2F20005C2
:102B60002878012840F0A3802869298900220028BC
:102B70002A7000F09C8045F6A520C8F2012042ACE6
:102B80008DF80C11090A4290A01C8DF80D11062138
:102B9000ADF80E21FDF7A6FC2969ADF81001084635
:102BA00021460A227FE000BF40F2DC05C2F20005A8
:102BB0002878002854D028692989002200282A7002
:102BC00075D045F6A5208DF80C11090AC8F2013020
:102BD00042AC8DF80D110A214290A01CADF80E11E7
:102BE0004AE000BFFEF78EFAE768E68894F80390A3
:102BF00094F80580054620464FF4C261FDF70BFCB2
:102C000040F2DC04C2F20004206900284FD045F6EF
:102C1000A520E91BC8F2015042AD8DF80C61360ABF
:102C20000A0E0B0C0F0A4290A81C8DF80D610626A7
:102C30008DF812110C21ADF80E618DF810918DF800
:102C400011818DF813718DF814318DF81521FDF770
:102C500049FC2169ADF8160108462946102222E0F8
:102C6000286920B345F6A520C8F2013042AC429055
:102C7000A01C4FF42021439145F65401C5F25F4159
:102C8000449144F64951C4F64571459145F2554188
:102C9000ADF818111021FDF725FC2969ADF81A01CE
:102CA0000846214614224FF47A73FFF79FFD0DF575
:102CB0005B7DBDE8F0830000F0B581B04FF001040A
:102CC00060B340F2DC05C2F20005286140F2BC406E
:102CD0000027C2F200004FF4C261AF80EF802F7076
:102CE000FDF799FB40F20C06C2F2000634706F61EA
:102CF000AF61FEF707FAE8612869AF70C5F80A709E
:102D000080B101680A68009249680091009947649F
:102D100090F8421022290BD100243470204601B0D3
:102D2000F0BD00BF01243470204601B0F0BD00BFEB
:102D3000691C0122FFF72EFD0446022808D12869EC
:102D400090F842002228E7D00220307002E000BF55
:102D500034702CB1A8690130A861204601B0F0BDE3
:102D60000024204601B0F0BD2DE9F04FADF5237DE4
:102D700040F2DC0AC2F2000ABAF80610BAF80400FF
:102D800040F2BC468142C2F2000663D1307800288E
:102D90005CD07078002859D1B078002856D0FEF762
:102DA000B1F9B168401A51D43078A0B1707890B9B7
:102DB000F078317981420ED2FDF7F4FD58B93479BB
:102DC000C4EB042031193044097C1630FDF7CAFEEB
:102DD000002800F07984F58830464FF4C261FDF791
:102DE0001AFBDAF8100088B3290A8DF82D100F218C
:102DF000ADF82E1045F24251C5F252310C9145F614
:102E00005471C4F24E510D9145F25841C4F25F61C4
:102E100045F6A5200E9144F24611C8F201300AACE5
:102E2000C4F649410A90A01CCDF83B1015218DF83D
:102E30002C50FDF757FBDAF81010ADF83F000846AC
:102E4000214619224FF47A73FFF7D0FC0DF5237D4C
:102E5000BDE8F08F0AA8821C083003909AF802009F
:102E600040F6CC2B40F25C27C2F2000B0025C2F2E8
:102E7000000704920DE000BFA52A12BF0020012028
:102E80008AF80200BAF80610BAF8042091423FF41A
:102E90007DAF8AB201318BB21BF80220B5EB932FC4
:102EA000C0B218BF00210228AAF806100CD00128D1
:102EB000E2D1A52A28D05A2A28D102208AF8020075
:102EC000CAF80A50DEE700BFBAF80A10B1F5187F59
:102ED00006D300208AF80200CAF80A00D2E700BF31
:102EE000481C0628AAF80A007A5413D13978012917
:102EF000EFD1B988B1F5167FEBD80831AAF80C10DC
:102F000088420BD00220BDE70120BBE700208AF8F1
:102F10000200B7E7BAF80C108842F3D197F8049092
:102F2000787949EA00281FFA88F4A11D7E5A3846AC
:102F3000FDF7D8FA864240F06F827878BE78FA784A
:102F40000138052800F23C8146EA0223DFE810F050
:102F50000600C6006C00940034001201DAF810007C
:102F6000002800F0598245F6A520C8F201000FF2B2
:102F7000AC710A908DF82C6017200E1D8DF82D2055
:102F8000ADF82E00DFF894C74DCE039CC4E900C015
:102F900004F108004CC0887D898AA0750498A1823C
:102FA0001D21FDF79FFADAF81010ADF8470008462A
:102FB0000AA921222CE200BF1446FDF7B3FD002828
:102FC00000F0CC81DAF81000002800F0258245F6E8
:102FD000A520C8F201300A901020ADF82E00039809
:102FE00044F25211C4F64411016045F64F71C4F227
:102FF0005251416044F25351C5F65471816044F21C
:103000004611C4F64941C160049816218DF82C6020
:103010008DF82D40FDF766FADAF81010ADF8400093
:1030200008460AA91A22F3E140F2BC40C2F20000AD
:103030000078002800F09E81DAF81000002800F0E7
:10304000EB8145F6A520C8F201300A900A208DF8E0
:103050002D20ADF82E00039845F2425145F65472EA
:10306000C5F25231C5F24252C0E9001245F6531181
:103070008DF82C6025E000BFA8F5807080B2B0F517
:103080007F4F00F2CB80DAF81000002800F0C481F6
:1030900045F6A520C8F201300A900A208DF82D20AF
:1030A000ADF82E00039844F2421145F65402C5F6DD
:1030B0004471C4F65F428DF82C60C0E9001244F6FA
:1030C0004561018104981021FDF70CFADAF810101F
:1030D000ADF83A0008460AA9142299E1102C40F0F4
:1030E000D380D7F80600D7F80A100590F889069122
:1030F000ADF81C00387D797D8DF8220001F00100CB
:1031000014463A698DF82300C1F3400009958DF803
:10311000240005A8CDF81E20FDF7A8FA002800F02D
:103120005B81DAF81000002800F0768145F6A520D2
:10313000C8F201300A9011208DF82C608DF82D40D6
:10314000ADF82E00DFF8C0050FF2BC54039E231D1E
:103150000ECB86E80700207C172130740498F360BA
:10316000FDF7C0F9DAF81010ADF8410008460AA9D9
:103170001B224DE1022C00F2B780DAF81000002883
:1031800000F04A8145F6A520C8F201300A900D20D2
:10319000ADF82E00039844F24211C5F64471016067
:1031A00045F24251C5F25231416045F65471C4F2C4
:1031B0004C518DF82C608DF82D2081604E21FEE061
:1031C000DAF81000002800F0278145F6A520C8F2A3
:1031D00001300A900B208DF82D20ADF82E000398B9
:1031E00044F6556145F24F72C4F64B61C5F64E7216
:1031F000C0E9001244F25F31C4F24D41C0F807103B
:10320000049811218DF82C60FDF76CF9DAF8101094
:10321000ADF83B0008460AA91522F9E09AF800002B
:10322000002872D140F2BC40C2F2000000780028B1
:103230006BD198461446FDF7B5FB2246002864D1B1
:10324000B81D4946FDF78EFC002800F06181DAF8D0
:103250001000002800F0E08045F6A520C8F20130FB
:103260000A900D20ADF82E00039845F65401C5F2E2
:103270005F31016044F254118DF82C608DF82D40BF
:10328000C5F2524194E000BFDAF81000002800F0C7
:10329000C38045F6A520C8F201300A900E20ADF893
:1032A0002E00039844F24211C5F64471016044F6C1
:1032B0004371C4F24E61416044F24971C4F65F410A
:1032C000816044F645618DF82C608DF82D20818158
:1032D00004981421FDF706F9DAF81010ADF83E0055
:1032E00008460AA9182293E09AF8000068B940F24B
:1032F000BC40C2F20000007838B9CDE90132FDF7D8
:1033000051FB029A002800F09180DAF810000028A2
:1033100000F0828045F6A520C8F201300A9007200F
:10332000ADF82E00039845F65401C4F25F21016008
:1033300045F24251C5F65311C0F8031004980D210F
:103340008DF82C608DF82D20FDF7CCF8DAF81010F0
:10335000ADF8370008460AA9112259E040F2BC40F6
:10336000C2F200004FF4C2618AF80050FDF753F832
:1033700032E000BF1446FDF7BDFC68B3DAF8100078
:10338000002849D045F6A520C8F201300A900D204A
:10339000ADF82E00039845F25341C5F2412101607A
:1033A00045F65471C5F652018DF82C608DF82D400C
:1033B000416044F25F61C4F6411181604C210173A8
:1033C00004981321FDF78EF8DAF81010ADF83D00DF
:1033D00008460AA917221BE0DAF81000E0B145F60A
:1033E000A520C8F201000A900220C4F64F30CDF8A3
:1033F0002E00049808218DF82C608DF82D40FDF7E3
:1034000071F8DAF81010ADF8320008460AA90C225B
:103410004FF47A73FFF7EAF940F2BC460020C2F29B
:1034200000068AF80200CAF80A002BE5B979C81F1D
:1034300010F1060F48D397F80780B8F1150F43D263
:1034400040F2BC49C2F20009484600914FF4C26103
:10345000FCF7E1FF00983A7A89F80300019889F8AF
:103460000580A9F806001AB102F10308A04555D954
:1034700040F2BC40C2F200004FF4C261FCF7CBFF47
:10348000DAF810000028C7D045F6A520C8F20130B0
:103490000A90029844F242118DF82D000E20ADF8EA
:1034A0002E000398C5F64471016045F24251C5F201
:1034B0005231416045F65471C5F249418DF82C6096
:1034C000816044F6455102E7DAF810000028A3D0E5
:1034D00045F6A520C8F201300A900E20ADF82E0066
:1034E000039844F24211C5F64471016045F242511D
:1034F000C5F25231416045F65471C4F24D518DF818
:103500002C608DF82D20816044F25411DFE600BF5D
:103510000120AAF808808AF800007DE740F2BC404C
:10352000C2F200000274163007F109019146FCF75F
:10353000D9FE009801281DD11FFA88F0844240F27C
:10354000BC44C2F2000440F0B18001202070FDF7BD
:10355000D9FDE060257100F0B5FB002800F0B080D7
:1035600020464FF4C261FCF756FF019861A100F0BC
:103570003DFB51E744457FF67BAF07EB08008279BE
:10358000002A3FF475AF09F1040000EB0208A045E2
:103590003FF66EAF40F2BC43C2F200033844811DD7
:1035A00003F215105A74FCF79DFE00990229C3D04E
:1035B00044457FF65DAF07EB08008279002A3FF4AF
:1035C00057AF08F1010000EB0208A0453FF650AFED
:1035D00040F2BC43C2F2000338448946811D03F522
:1035E00005709A74FCF77EFEB9F1030FA4D0009920
:1035F00044457FF63DAF07EB08008279002A3FF48F
:1036000037AF08F1010000EB0208A0453FF630AFEC
:1036100040F2BC43C2F2000338448946811D03F2E4
:103620001330DA74FCF75EFEB9F1040F3FF484AF97
:10363000009944457FF61CAF07EB08008279002A09
:103640003FF416AF08F1010000EB0208A0453FF679
:103650000FAF40F2BC43C2F2000338448946811DDB
:1036600003F212401A75FCF73DFEB9F1050F3FF465
:1036700063AF44457FF6FCAE07EB08008279002A71
:103680003FF4F6AE08F1010000EB0208A0453FF65A
:10369000EFAE40F2BC43C2F200033844811D03F296
:1036A00011505A75FCF71EFE46E700BF20464FF446
:1036B000C261FCF7B0FE019808A100F097FAABE6F2
:1036C000019800F067FAA7E60120A6F80100601C47
:1036D00030710DF5237DBDE8F08F00BF4255525388
:1036E000545F545241494C494E475F4259544553E7
:1036F0000000000042555253545F53544152545FEE
:103700004641494C00000000524144494F5F434F3D
:103710004E4649475F4641494C00000053544D33E3
:1037200032463130332D4532322D425249444745DD
:103730002D56310010B582B040F2DC04C2F2000414
:103740002269BAB3904235D16069013060610020CE
:10375000A080E080A070C4F80A0011680B68019393
:10376000496801910199506492F84210222907D1C9
:1037700040F20C01C2F20001087002B010BD00BF9F
:10378000611C10460122FFF705F802280CD12069C0
:1037900090F8420022280FD140F20C00C2F2000043
:1037A0000021017002B010BD40F20C01C2F2000114
:1037B000087038B902B010BD40F20C00C2F200002F
:1037C00002210170A0690130A06102B010BD0000AB
:1037D000B0B540F2DC04C2F200042269002A4AD0EB
:1037E000904248D194F801E0A1884FF0000C4B1CA6
:1037F00098B2BCEB902F18BF0023E0889DB28542A1
:1038000007D1E088013085B2BCEB952F18BF0020AE
:10381000E08040F6CC20C2F2000000F801E0A38076
:1038200092F84200222807D140F20C00C2F20000B8
:1038300000210170B0BD00BF611C10460122FEF7DF
:10384000A9FF02280CD1206990F842002228EBD071
:1038500040F20C00C2F200000221017008E000BF3B
:1038600040F20C01C2F200010028087008BFB0BD90
:10387000A0690130A061B0BD40F2DC00C2F20000DE
:10388000006978B1416C69B990F84200222809D1E9
:1038900040F20C00C2F200000078B0FA80F040095B
:1038A000704700BF0020704710B582B040F2DC04C2
:1038B000C2F200042069002845D0FDF723FCE2692C
:1038C0000146801A0A283ED32069E161416C79B132
:1038D0006169013161610021A180E180A170C4F8BA
:1038E0000A1002681368019352680192019A4164B8
:1038F00090F84210222926D090F84210222907D1B0
:1039000040F20C00C2F200000021017002B010BDB4
:10391000611C0122FEF73EFF02280BD1206990F8BE
:1039200042002228ECD040F20C00C2F2000002213A
:10393000017005E040F20C01C2F20001087010B104
:10394000A0690130A06102B010BD00002DE9F04374
:1039500081B0089C984615460E468146FDF7D2FB7D
:10396000201A00EB0804FDF7CDFB40F20801C2F27B
:1039700000010968C1F3CB3161430091D9F800100F
:103980008A683240921BB2FA82F2520995423DD0C7
:10399000074618F1010031D0FDF7B4FBC01BA0426F
:1039A00038D2009800990028A1F101010091D9F8BE
:1039B0000010896808BF044601EA0600801BB0FABF
:1039C00080F040098542E7D120E000BF88683040A0
:1039D000801BB0FA80F04009854217D088683040DB
:1039E000801BB0FA80F0400985420FD088683040D3
:1039F000801BB0FA80F04009854207D088683040CB
:103A0000801BB0FA80F040098542DFD1002001B070
:103A1000BDE8F083D9E900014268B1F5827F22F068
:103A2000E00242600BD1D9F80810B1F5004F02D086
:103A3000B1F5806F03D1016821F040010160D9F830
:103A40002810B1F5005F07D1016821F40051016031
:103A5000016841F400510160012089F85100002003
:103A600089F85000032001B0BDE8F08370470000E2
:103A7000FDF74EBB70470000406A0021C185C1843C
:103A8000FEF714BB81B090F84210222921D183683F
:103A90000246B3F5805F09D152F8281F52F8183C4E
:103AA000002B63D003685B680AE000BF52F8281F50
:103AB00013B90369002BF5D003685B6803F07F033B
:103AC0000B70116801311160C18D01390A04C18583
:103AD00002D001B0704700BF0168CA6822F020021E
:103AE000CA60CA6822F48072CA604A6922F0010280
:103AF0004A61202180F8421000214163026B012AB3
:103B00003CD10163016851E8031F026821F01001F4
:103B100042E80313DBB1016851E8031F026821F09A
:103B2000100142E8031393B1016851E8031F0268D2
:103B300021F0100142E803134BB1016851E8031F63
:103B4000026821F0100142E80313002BDAD101686A
:103B50000A68D20606D5002200920A6800924968D7
:103B600000910099818D01B0FEF79EBA02685268FB
:103B70006FF35F2221F8022B8162A5E701B0FEF707
:103B800033BE000040F27800C2F20000FEF790BAA7
:103B9000FEE70000B0B5ADF51A7D40F2DC05C2F2DB
:103BA00000052969F9B145F6A5218DF80A00000A3A
:103BB000C8F201010DF106048DF80B000220CDF8CA
:103BC0000610A11CC4F64F30039008460821FCF7EC
:103BD00089FC2969ADF81000084621460C224FF4F3
:103BE0007A73FEF703FE0DF51A7DB0BDF0B5ADF5A5
:103BF000197D89B14FF0FF34631CDA084A2A2DD8A9
:103C00000A19577857B3937853B3D37853B31279CB
:103C10000434002AF0D126E040F2DC05C2F20005AF
:103C2000296900294BD045F6A521C8F201316C461F
:103C30008DF80400000A0091A11C8DF805000020F9
:103C4000ADF8060008460621FCF74CFC2969ADF8E2
:103C50000800084621460A222DE000BF1C4602E06B
:103C6000023400E0033440F2DC07C2F200073A6994
:103C70002AB345F6A5226D468DF80400000AC8F265
:103C80000132AE1C8DF80500200A00928DF8064026
:103C90008DF8070024B105F108002246FCF722FB4D
:103CA000A11D3046FCF71EFC6119088104F10A01D0
:103CB00038698AB229464FF47A73FEF797FD0DF5FD
:103CC000197DF0BDB0B540F2BC44C2F200042078CA
:103CD00000284FF001001FD06178E9B9E078217920
:103CE000814224BF0120B0BDFCF75CFE00281CBF50
:103CF0000220B0BD2579C5EB052061192044097C5F
:103D00001630FCF72FFF002818BFB0BD0120A4F823
:103D10000100681C20710020B0BD000010B582B009
:103D200004460DF1070140F6890000F017F908B1CB
:103D300002B010BD9DF80710A01F18BF012001F0B0
:103D4000FB0141EA80008DF807000DF1070140F604
:103D50008900012200F07CFA02B010BD80B582B06B
:103D60000DF1070140F6D80000F0F8F810B102B0EC
:103D700080BD00BF9DF807000DF1070140F01E0057
:103D80008DF8070040F6D800012200F061FA002803
:103D9000EDD138208DF807000DF1070140F6E7005E
:103DA000012200F055FA02B080BD00002DE9F0417B
:103DB00082B040F60044154688460746C4F2010426
:103DC000FDF7A0F9064600BF20464FF48061FDF7DD
:103DD0008DF901280AD1FDF795F9801BC0087C28D0
:103DE000F2D9032002B0BDE8F08100BF1E208DF89B
:103DF000050000208DF807002046012100228DF8E3
:103E00000670FDF779F940F2C006C2F2000670684C
:103E10000DF1050103226423FDF7C8FE35B128B971
:103E2000706841462A466423FDF7C0FD05462046DA
:103E300001210122FDF760F928461DB102B0BDE85D
:103E4000F08100BFFDF75EF9054600BF20464FF444
:103E50008061FDF74BF9012806D1FDF753F9401BAE
:103E6000B0F57A7FF2D3BCE7002002B0BDE8F08164
:103E70002DE9F04182B08DF8070000208DF8060092
:103E800000294FF0010062D040F2C005C2F20005E7
:103E90006B68002B5BD040F600440E469046C4F29F
:103EA0000104FDF72FF9074620464FF48061FDF726
:103EB0001DF901280AD1FDF725F9C01BC0087C288F
:103EC000F2D9032002B0BDE8F08100BF20460121F5
:103ED0000022FDF711F968680DF107010122642342
:103EE000FDF764FE38B968680DF10601012264230C
:103EF000FDF75CFE50B10546204601210122FDF789
:103F0000FBF8284602B0BDE8F08100BF6868314682
:103F100042466423FDF74AFD054620460121012261
:103F2000FDF7EAF8284695B9FDF7ECF8054600BF1D
:103F300020464FF48061FDF7D9F801280AD1FDF73A
:103F4000E1F8401BB0F57A7F4FF00300F0D302B0E8
:103F5000BDE8F081002002B0BDE8F0812DE9F0411C
:103F600082B0064600294FF0010064D040F2C0053F
:103F7000C2F200056A68002A5DD040F60044884617
:103F8000C4F20104FDF7BEF8074600BF20464FF417
:103F90008061FDF7ABF801280AD1FDF7B3F8C01B2B
:103FA000C0087C28F2D9032002B0BDE8F08100BF30
:103FB0001D208DF80400300A8DF8050000208DF8D2
:103FC00007002046012100228DF80660FDF794F8D5
:103FD000686801A904226423FDF7E8FD50B1054695
:103FE000204601210122FDF787F8284602B0BDE8EE
:103FF000F08100BF6868414601226423FDF7D6FCCA
:104000000546204601210122FDF776F8284695B99C
:10401000FDF778F8054600BF20464FF48061FDF7B4
:1040200065F801280AD1FDF76DF8401BB0F57A7FDD
:104030004FF00300F0D302B0BDE8F081002002B0E1
:10404000BDE8F08110B540F60044C4F201042046FA
:104050004FF480510022FDF74FF820464FF40051F5
:104060000022BDE81040FDF747B8000010B540F64B
:104070000044C4F2010420464FF480510022FDF7B1
:104080003BF820464FF400510122BDE81040FDF7F7
:1040900033B8000080B582B046F20230C6F202307A
:1040A00000900020019069460820082200F066F880
:1040B00002B080BD70B582B040F2C006C2F2000608
:1040C000B17CF27D337EB1FA81F1002A18BF012262
:1040D000B48A4909002B18BF0123250A8DF8041062
:1040E0008DF805008DF806200DF102018C200622C6
:1040F0008DF802508DF803408DF8073000F03EF83F
:1041000010B102B070BD00BF0DF1010140F2367078
:10411000FFF724FF0028F4D1307E9DF80110B0FA9B
:1041200080F0400901F0FB0141EA80008DF80100B8
:104130000DF1010140F23670012200F089F802B061
:1041400070BD0000122807D034281CBF0120704722
:104150003420442102E000BF1420242180B582B025
:104160008DF806008DF807100DF106014FF4E86098
:10417000022200F06DF802B080BD00002DE9F04190
:1041800082B040F2C005C2F200056B688DF80700EE
:10419000D3B140F600440E469046C4F20104FCF749
:1041A000B1FF074620464FF48061FCF79FFF0128CE
:1041B0000ED1FCF7A7FFC01BC0087C28F2D9032052
:1041C00002B0BDE8F08100BF012002B0BDE8F0817F
:1041D000204601210022FCF78FFF68680DF10701DE
:1041E00001226423FDF7E2FC50B10546204601217F
:1041F0000122FCF781FF284602B0BDE8F08100BF34
:104200006868314642466423FDF7D0FC05462046E7
:1042100001210122FCF770FF284695B9FCF772FFD7
:10422000054600BF20464FF48061FCF75FFF012880
:104230000AD1FCF767FF401BB0F57A7F4FF003000F
:10424000F0D302B0BDE8F081002002B0BDE8F081FB
:104250002DE9F04381B0074600294FF0010062D0FC
:1042600040F2C006C2F200067368002B5BD040F635
:10427000004489469046C4F20104FCF743FF05461A
:1042800020464FF48061FCF731FF01280AD1FCF78A
:1042900039FF401BC0087C28F2D9032001B0BDE8DB
:1042A000F08300BF0D208DF80100380A8DF8020060
:1042B0002046012100228DF80370FCF71DFF706875
:1042C0000DF1010103226423FDF770FC50B1054696
:1042D000204601210122FCF70FFF284601B0BDE86E
:1042E000F08300BF7068494642466423FDF75EFCD8
:1042F0000546204601210122FCF7FEFE284695B91D
:10430000FCF700FF054600BF20464FF48061FCF734
:10431000EDFE01280AD1FCF7F5FE401BB0F57A7FCF
:104320004FF00300F0D301B0BDE8F083002001B0EE
:10433000BDE8F08390B041F21804C4F20204FCF727
:10434000F5FEE06840F2E040C4F242200121016045
:1043500000254FF480300226CDE90705CDE90D6038
:104360004FF4E0100F9006A8CDE90B55CDE90955A3
:1043700006910A91FDF788F820B1EFF3108072B62C
:10438000FEE700BF0F20CDE901064FF4806701A8CA
:1043900002210395CDE90475FCF770FF20B1EFF31E
:1043A000108072B6FEE700BF0026CDE90866CDE9B1
:1043B0000666206840F6004840F020002060206833
:1043C000C4F2010800F02000019001982068032148
:1043D00040F0040020602068012200F004000190F9
:1043E0000198206840F0080020602068012400F057
:1043F0000800019001984046FCF77EFE40464FF4CD
:1044000040510022FCF778FE43F2030006A951C197
:10441000022006AD099040462946FCF75FFD404664
:104420002946CDE906760896FCF758FD4FF4006062
:1044300006900020C1F21100CDE90706404629464A
:10444000FCF74CFD282000210022FCF7DBFE282091
:10445000FCF7C6FE40F2042008F51051C2F200003D
:104460004FF482724FF40073182780E846000A2147
:10447000C0E90366C0E90563C761C0E90866C0E931
:104480000A61FDF701FA28B1EFF3108072B600BFA0
:10449000FEE700BF40F27007C2F2000708F5305196
:1044A000384640F8081F44F24021C0F20F010C22A8
:1044B000C0E90116C0E90366C0E90526C661FEF73A
:1044C000AFF828B1EFF3108072B600BFFEE700BF6F
:1044D00007F10800FEF7F0FB20B1EFF3108072B691
:1044E000FEE700BF40F20420C2F20000FCF7DCF956
:1044F00020B1EFF3108072B6FEE700BF42F2004930
:10450000CFF6FF794CF6CC4048F8090045F25550FB
:1045100048F8090042F20440CFF6FF70042148F841
:10452000001042F20840CFF6FF7040F6C31148F881
:104530000010FCF7E7FD42F20C440546CFF6FF748D
:1045400058F8040020B1FCF7DDFD401B3328F7D3F9
:104550004AF6AA2448F80940FCF7D4FD40F2FC05CD
:10456000C2F200054FF0000A0AE000BFFCF7CAFDE6
:104570000646FFF781F9B8B1C7F800A048F809402E
:10458000FFF792F9FEF7F0FB2846FCF719FA00282E
:10459000ECD000BF2846FEF7FDF92846FCF710FADC
:1045A0000028F7D1E2E700BF386828B1301AF928AF
:1045B00098BF48F80940E3E778683E6001307860CA
:1045C00048F80940DCE7000000000000000001029C
:1045D00003040607080900000000010203040102A9
:1045E00002030405060708090A0B0C0D0E0F101034
:1045F00010460008000000201000000050010008D4
:104600002046000810000020C014000070010008BF
:10461000010000001000000000127A0001000000FC
:04000005080000ED02
:00000001FF
